{
  "contractName": "SlotMachine",
  "abi": [
    {
      "constant": true,
      "inputs": [
        {
          "name": "",
          "type": "uint256"
        }
      ],
      "name": "bets",
      "outputs": [
        {
          "name": "user",
          "type": "address"
        },
        {
          "name": "amount",
          "type": "uint256"
        },
        {
          "name": "block",
          "type": "uint256"
        }
      ],
      "payable": false,
      "stateMutability": "view",
      "type": "function",
      "signature": "0x22af00fa"
    },
    {
      "constant": true,
      "inputs": [
        {
          "name": "",
          "type": "uint256"
        }
      ],
      "name": "reels",
      "outputs": [
        {
          "name": "probDenominator",
          "type": "uint256"
        }
      ],
      "payable": false,
      "stateMutability": "view",
      "type": "function",
      "signature": "0x2422eb9c"
    },
    {
      "constant": true,
      "inputs": [],
      "name": "maxHouseMembers",
      "outputs": [
        {
          "name": "",
          "type": "uint256"
        }
      ],
      "payable": false,
      "stateMutability": "view",
      "type": "function",
      "signature": "0x2ac485aa"
    },
    {
      "constant": true,
      "inputs": [],
      "name": "minBetDivisor",
      "outputs": [
        {
          "name": "",
          "type": "uint256"
        }
      ],
      "payable": false,
      "stateMutability": "view",
      "type": "function",
      "signature": "0x3a208000"
    },
    {
      "constant": true,
      "inputs": [],
      "name": "counter",
      "outputs": [
        {
          "name": "",
          "type": "uint256"
        }
      ],
      "payable": false,
      "stateMutability": "view",
      "type": "function",
      "signature": "0x61bc221a"
    },
    {
      "constant": true,
      "inputs": [],
      "name": "minPercentageIncrease",
      "outputs": [
        {
          "name": "",
          "type": "uint256"
        }
      ],
      "payable": false,
      "stateMutability": "view",
      "type": "function",
      "signature": "0x72638b9c"
    },
    {
      "constant": true,
      "inputs": [
        {
          "name": "",
          "type": "address"
        }
      ],
      "name": "houseAccounts",
      "outputs": [
        {
          "name": "",
          "type": "uint256"
        }
      ],
      "payable": false,
      "stateMutability": "view",
      "type": "function",
      "signature": "0x7bef46f5"
    },
    {
      "constant": true,
      "inputs": [
        {
          "name": "",
          "type": "address"
        }
      ],
      "name": "housePercentages",
      "outputs": [
        {
          "name": "numerator",
          "type": "uint256"
        },
        {
          "name": "denominator",
          "type": "uint256"
        }
      ],
      "payable": false,
      "stateMutability": "view",
      "type": "function",
      "signature": "0x8c7fbb63"
    },
    {
      "constant": true,
      "inputs": [],
      "name": "owner",
      "outputs": [
        {
          "name": "",
          "type": "address"
        }
      ],
      "payable": false,
      "stateMutability": "view",
      "type": "function",
      "signature": "0x8da5cb5b"
    },
    {
      "constant": true,
      "inputs": [
        {
          "name": "",
          "type": "uint256"
        },
        {
          "name": "",
          "type": "uint256"
        }
      ],
      "name": "outcomes",
      "outputs": [
        {
          "name": "",
          "type": "uint256"
        }
      ],
      "payable": false,
      "stateMutability": "view",
      "type": "function",
      "signature": "0x962254a4"
    },
    {
      "constant": true,
      "inputs": [
        {
          "name": "",
          "type": "uint256"
        }
      ],
      "name": "houseMemberArray",
      "outputs": [
        {
          "name": "",
          "type": "address"
        }
      ],
      "payable": false,
      "stateMutability": "view",
      "type": "function",
      "signature": "0x9e30f05d"
    },
    {
      "constant": true,
      "inputs": [],
      "name": "nonceForRandom",
      "outputs": [
        {
          "name": "",
          "type": "uint256"
        }
      ],
      "payable": false,
      "stateMutability": "view",
      "type": "function",
      "signature": "0xc947f061"
    },
    {
      "constant": true,
      "inputs": [],
      "name": "blockDelay",
      "outputs": [
        {
          "name": "",
          "type": "uint256"
        }
      ],
      "payable": false,
      "stateMutability": "view",
      "type": "function",
      "signature": "0xd98f6088"
    },
    {
      "constant": true,
      "inputs": [],
      "name": "minFundDivisor",
      "outputs": [
        {
          "name": "",
          "type": "uint256"
        }
      ],
      "payable": false,
      "stateMutability": "view",
      "type": "function",
      "signature": "0xe427d026"
    },
    {
      "constant": true,
      "inputs": [
        {
          "name": "",
          "type": "uint256"
        }
      ],
      "name": "symbolCounter",
      "outputs": [
        {
          "name": "",
          "type": "uint8"
        }
      ],
      "payable": false,
      "stateMutability": "view",
      "type": "function",
      "signature": "0xf729c2f4"
    },
    {
      "constant": true,
      "inputs": [
        {
          "name": "",
          "type": "uint256"
        }
      ],
      "name": "alreadyPlayed",
      "outputs": [
        {
          "name": "",
          "type": "bool"
        }
      ],
      "payable": false,
      "stateMutability": "view",
      "type": "function",
      "signature": "0xf977f85e"
    },
    {
      "constant": true,
      "inputs": [],
      "name": "maxBetAsBalancePercentage",
      "outputs": [
        {
          "name": "",
          "type": "uint256"
        }
      ],
      "payable": false,
      "stateMutability": "view",
      "type": "function",
      "signature": "0xfa60c0bc"
    },
    {
      "inputs": [],
      "payable": true,
      "stateMutability": "payable",
      "type": "constructor",
      "signature": "constructor"
    },
    {
      "anonymous": false,
      "inputs": [
        {
          "indexed": false,
          "name": "user",
          "type": "address"
        },
        {
          "indexed": false,
          "name": "amount",
          "type": "uint256"
        },
        {
          "indexed": false,
          "name": "block",
          "type": "uint256"
        },
        {
          "indexed": false,
          "name": "counter",
          "type": "uint256"
        }
      ],
      "name": "BetPlaced",
      "type": "event",
      "signature": "0x7363e6581df4db69463222156be4a09656528b9f1302890fa4c0b60819b69fc6"
    },
    {
      "anonymous": false,
      "inputs": [
        {
          "indexed": false,
          "name": "id",
          "type": "uint256"
        },
        {
          "indexed": false,
          "name": "award",
          "type": "uint256"
        }
      ],
      "name": "Awarded",
      "type": "event",
      "signature": "0xde375d5f6628b29fc599d7672d0d7475a6b065940041879fa73f4e1db7d3ac20"
    },
    {
      "anonymous": false,
      "inputs": [
        {
          "indexed": false,
          "name": "id",
          "type": "uint256"
        },
        {
          "indexed": false,
          "name": "award",
          "type": "uint256"
        }
      ],
      "name": "Spin",
      "type": "event",
      "signature": "0x70907b7a890a9bb1241130b7270a867d408a17aad45906e17b3845a0ab01d621"
    },
    {
      "constant": false,
      "inputs": [
        {
          "name": "id",
          "type": "uint256"
        }
      ],
      "name": "sample",
      "outputs": [],
      "payable": false,
      "stateMutability": "nonpayable",
      "type": "function",
      "signature": "0x10fa1878"
    },
    {
      "constant": false,
      "inputs": [],
      "name": "wager",
      "outputs": [],
      "payable": true,
      "stateMutability": "payable",
      "type": "function",
      "signature": "0x667d5d22"
    },
    {
      "constant": false,
      "inputs": [
        {
          "name": "id",
          "type": "uint256"
        }
      ],
      "name": "play",
      "outputs": [],
      "payable": false,
      "stateMutability": "nonpayable",
      "type": "function",
      "signature": "0x6898f82b"
    },
    {
      "constant": true,
      "inputs": [
        {
          "name": "a",
          "type": "uint256"
        },
        {
          "name": "b",
          "type": "uint256"
        }
      ],
      "name": "gcdCalculate",
      "outputs": [
        {
          "name": "",
          "type": "uint256"
        }
      ],
      "payable": false,
      "stateMutability": "pure",
      "type": "function",
      "signature": "0xd7c6fc27"
    },
    {
      "constant": false,
      "inputs": [
        {
          "name": "outcomeResult",
          "type": "uint256[5]"
        }
      ],
      "name": "countMaxMatch",
      "outputs": [
        {
          "name": "",
          "type": "uint256"
        }
      ],
      "payable": false,
      "stateMutability": "nonpayable",
      "type": "function",
      "signature": "0xd8fc0e9a"
    },
    {
      "constant": false,
      "inputs": [],
      "name": "calculateHousePercentages",
      "outputs": [],
      "payable": false,
      "stateMutability": "nonpayable",
      "type": "function",
      "signature": "0x988a2312"
    },
    {
      "constant": false,
      "inputs": [
        {
          "name": "amount",
          "type": "uint256"
        }
      ],
      "name": "setMinFundDivisor",
      "outputs": [],
      "payable": false,
      "stateMutability": "nonpayable",
      "type": "function",
      "signature": "0x65ac7fa6"
    },
    {
      "constant": true,
      "inputs": [
        {
          "name": "amount",
          "type": "uint256"
        }
      ],
      "name": "multipleOf",
      "outputs": [
        {
          "name": "",
          "type": "bool"
        }
      ],
      "payable": false,
      "stateMutability": "view",
      "type": "function",
      "signature": "0xe566f2b2"
    },
    {
      "constant": false,
      "inputs": [],
      "name": "fund",
      "outputs": [],
      "payable": true,
      "stateMutability": "payable",
      "type": "function",
      "signature": "0xb60d4288"
    },
    {
      "constant": false,
      "inputs": [
        {
          "name": "houseMember",
          "type": "address"
        }
      ],
      "name": "houseWithdraw",
      "outputs": [],
      "payable": false,
      "stateMutability": "nonpayable",
      "type": "function",
      "signature": "0xe9d3ea6b"
    },
    {
      "constant": false,
      "inputs": [],
      "name": "kill",
      "outputs": [],
      "payable": false,
      "stateMutability": "nonpayable",
      "type": "function",
      "signature": "0x41c0e1b5"
    },
    {
      "constant": true,
      "inputs": [
        {
          "name": "id",
          "type": "uint256"
        }
      ],
      "name": "outcomeGet",
      "outputs": [
        {
          "name": "",
          "type": "uint256[5]"
        }
      ],
      "payable": false,
      "stateMutability": "view",
      "type": "function",
      "signature": "0xe64d567b"
    },
    {
      "constant": true,
      "inputs": [],
      "name": "getBalance",
      "outputs": [
        {
          "name": "",
          "type": "uint256"
        }
      ],
      "payable": false,
      "stateMutability": "view",
      "type": "function",
      "signature": "0x12065fe0"
    }
  ],
  "bytecode": "0x6080604052633b9aca006000556000546001556000601b556000601c5533600260006101000a81548173ffffffffffffffffffffffffffffffffffffffff021916908373ffffffffffffffffffffffffffffffffffffffff160217905550620000766200007c640100000000026401000000009004565b6200071f565b6064601d60006005811015156200008f57fe5b600302016000018190555061012060405190810160405280600c60ff168152602001600b60ff168152602001600b60ff168152602001600b60ff168152602001600b60ff168152602001600b60ff168152602001600b60ff168152602001600b60ff168152602001600b60ff16815250601d60006005811015156200011057fe5b6003020160010190600962000127929190620006a0565b5061012060405190810160405280600060ff168152602001600160ff168152602001600260ff168152602001600360ff168152602001600460ff168152602001600560ff168152602001600660ff168152602001600760ff168152602001600860ff16815250601d60006005811015156200019e57fe5b60030201600201906009620001b5929190620006a0565b506064601d6001600581101515620001c957fe5b600302016000018190555061012060405190810160405280600c60ff168152602001600b60ff168152602001600b60ff168152602001600b60ff168152602001600b60ff168152602001600b60ff168152602001600b60ff168152602001600b60ff168152602001600b60ff16815250601d60016005811015156200024a57fe5b6003020160010190600962000261929190620006a0565b5061012060405190810160405280600060ff168152602001600160ff168152602001600260ff168152602001600360ff168152602001600460ff168152602001600560ff168152602001600660ff168152602001600760ff168152602001600860ff16815250601d6001600581101515620002d857fe5b60030201600201906009620002ef929190620006a0565b506064601d60026005811015156200030357fe5b600302016000018190555061012060405190810160405280600c60ff168152602001600b60ff168152602001600b60ff168152602001600b60ff168152602001600b60ff168152602001600b60ff168152602001600b60ff168152602001600b60ff168152602001600b60ff16815250601d60026005811015156200038457fe5b600302016001019060096200039b929190620006a0565b5061012060405190810160405280600060ff168152602001600160ff168152602001600260ff168152602001600360ff168152602001600460ff168152602001600560ff168152602001600660ff168152602001600760ff168152602001600860ff16815250601d60026005811015156200041257fe5b6003020160020190600962000429929190620006a0565b506064601d60036005811015156200043d57fe5b600302016000018190555061012060405190810160405280600c60ff168152602001600b60ff168152602001600b60ff168152602001600b60ff168152602001600b60ff168152602001600b60ff168152602001600b60ff168152602001600b60ff168152602001600b60ff16815250601d6003600581101515620004be57fe5b60030201600101906009620004d5929190620006a0565b5061012060405190810160405280600060ff168152602001600160ff168152602001600260ff168152602001600360ff168152602001600460ff168152602001600560ff168152602001600660ff168152602001600760ff168152602001600860ff16815250601d60036005811015156200054c57fe5b6003020160020190600962000563929190620006a0565b506064601d60046005811015156200057757fe5b600302016000018190555061012060405190810160405280600c60ff168152602001600b60ff168152602001600b60ff168152602001600b60ff168152602001600b60ff168152602001600b60ff168152602001600b60ff168152602001600b60ff168152602001600b60ff16815250601d6004600581101515620005f857fe5b600302016001019060096200060f929190620006a0565b5061012060405190810160405280600060ff168152602001600160ff168152602001600260ff168152602001600360ff168152602001600460ff168152602001600560ff168152602001600660ff168152602001600760ff168152602001600860ff16815250601d60046005811015156200068657fe5b600302016002019060096200069d929190620006a0565b50565b828054828255906000526020600020908101928215620006e4579160200282015b82811115620006e3578251829060ff16905591602001919060010190620006c1565b5b509050620006f39190620006f7565b5090565b6200071c91905b8082111562000718576000816000905550600101620006fe565b5090565b90565b6120f3806200072f6000396000f3fe608060405260043610610180576000357c0100000000000000000000000000000000000000000000000000000000900463ffffffff16806310fa18781461018557806312065fe0146101c057806322af00fa146101eb5780632422eb9c146102745780632ac485aa146102c35780633a208000146102ee57806341c0e1b51461031957806361bc221a1461033057806365ac7fa61461035b578063667d5d22146103965780636898f82b146103a057806372638b9c146103db5780637bef46f5146104065780638c7fbb631461046b5780638da5cb5b146104d7578063962254a41461052e578063988a2312146105875780639e30f05d1461059e578063b60d428814610619578063c947f06114610623578063d7c6fc271461064e578063d8fc0e9a146106a7578063d98f60881461072d578063e427d02614610758578063e566f2b214610783578063e64d567b146107d6578063e9d3ea6b1461084d578063f729c2f41461089e578063f977f85e146108f3578063fa60c0bc14610946575b600080fd5b34801561019157600080fd5b506101be600480360360208110156101a857600080fd5b8101908080359060200190929190505050610971565b005b3480156101cc57600080fd5b506101d5610b4a565b6040518082815260200191505060405180910390f35b3480156101f757600080fd5b506102246004803603602081101561020e57600080fd5b8101908080359060200190929190505050610b69565b604051808473ffffffffffffffffffffffffffffffffffffffff1673ffffffffffffffffffffffffffffffffffffffff168152602001838152602001828152602001935050505060405180910390f35b34801561028057600080fd5b506102ad6004803603602081101561029757600080fd5b8101908080359060200190929190505050610bb3565b6040518082815260200191505060405180910390f35b3480156102cf57600080fd5b506102d8610bd6565b6040518082815260200191505060405180910390f35b3480156102fa57600080fd5b50610303610bdb565b6040518082815260200191505060405180910390f35b34801561032557600080fd5b5061032e610be1565b005b34801561033c57600080fd5b50610345610cce565b6040518082815260200191505060405180910390f35b34801561036757600080fd5b506103946004803603602081101561037e57600080fd5b8101908080359060200190929190505050610cd4565b005b61039e610d3a565b005b3480156103ac57600080fd5b506103d9600480360360208110156103c357600080fd5b8101908080359060200190929190505050610ed1565b005b3480156103e757600080fd5b506103f06110f9565b6040518082815260200191505060405180910390f35b34801561041257600080fd5b506104556004803603602081101561042957600080fd5b81019080803573ffffffffffffffffffffffffffffffffffffffff1690602001909291905050506110fe565b6040518082815260200191505060405180910390f35b34801561047757600080fd5b506104ba6004803603602081101561048e57600080fd5b81019080803573ffffffffffffffffffffffffffffffffffffffff169060200190929190505050611116565b604051808381526020018281526020019250505060405180910390f35b3480156104e357600080fd5b506104ec61113a565b604051808273ffffffffffffffffffffffffffffffffffffffff1673ffffffffffffffffffffffffffffffffffffffff16815260200191505060405180910390f35b34801561053a57600080fd5b506105716004803603604081101561055157600080fd5b810190808035906020019092919080359060200190929190505050611160565b6040518082815260200191505060405180910390f35b34801561059357600080fd5b5061059c611187565b005b3480156105aa57600080fd5b506105d7600480360360208110156105c157600080fd5b81019080803590602001909291905050506114b6565b604051808273ffffffffffffffffffffffffffffffffffffffff1673ffffffffffffffffffffffffffffffffffffffff16815260200191505060405180910390f35b6106216114eb565b005b34801561062f57600080fd5b50610638611513565b6040518082815260200191505060405180910390f35b34801561065a57600080fd5b506106916004803603604081101561067157600080fd5b810190808035906020019092919080359060200190929190505050611519565b6040518082815260200191505060405180910390f35b3480156106b357600080fd5b50610717600480360360a08110156106ca57600080fd5b810190808060a001906005806020026040519081016040528092919082600560200280828437600081840152601f19601f820116905080830192505050505050919291929050505061154a565b6040518082815260200191505060405180910390f35b34801561073957600080fd5b506107426116b7565b6040518082815260200191505060405180910390f35b34801561076457600080fd5b5061076d6116bc565b6040518082815260200191505060405180910390f35b34801561078f57600080fd5b506107bc600480360360208110156107a657600080fd5b81019080803590602001909291905050506116c2565b604051808215151515815260200191505060405180910390f35b3480156107e257600080fd5b5061080f600480360360208110156107f957600080fd5b81019080803590602001909291905050506116db565b6040518082600560200280838360005b8381101561083a57808201518184015260208101905061081f565b5050505090500191505060405180910390f35b34801561085957600080fd5b5061089c6004803603602081101561087057600080fd5b81019080803573ffffffffffffffffffffffffffffffffffffffff169060200190929190505050611739565b005b3480156108aa57600080fd5b506108d7600480360360208110156108c157600080fd5b81019080803590602001909291905050506117df565b604051808260ff1660ff16815260200191505060405180910390f35b3480156108ff57600080fd5b5061092c6004803603602081101561091657600080fd5b81019080803590602001909291905050506117ff565b604051808215151515815260200191505060405180910390f35b34801561095257600080fd5b5061095b61181f565b6040518082815260200191505060405180910390f35b600080600080600090505b600560ff16811015610b1f57433382604051602001808481526020018373ffffffffffffffffffffffffffffffffffffffff1673ffffffffffffffffffffffffffffffffffffffff166c01000000000000000000000000028152601401828152602001935050505060405160208183030381529060405280519060200120600190049250601d81600581101515610a0f57fe5b600302016000015483811515610a2157fe5b0693506001601d82600581101515610a3557fe5b600302016001016000815481101515610a4a57fe5b906000526020600020015403915060008090505b601d82600581101515610a6d57fe5b6003020160010180549050811015610b11578285111515610acf57601d82600581101515610a9757fe5b6003020160020181815481101515610aab57fe5b9060005260206000200154602c83600581101515610ac557fe5b0181905550610b11565b601d82600581101515610ade57fe5b6003020160010160018201815481101515610af557fe5b9060005260206000200154830192508080600101915050610a5e565b50808060010191505061097c565b602c60316000878152602001908152602001600020906005610b42929190612042565b505050505050565b60003073ffffffffffffffffffffffffffffffffffffffff1631905090565b60036020528060005260406000206000915090508060000160009054906101000a900473ffffffffffffffffffffffffffffffffffffffff16908060010154908060020154905083565b601d81600581101515610bc257fe5b600302016000915090508060000154905081565b601481565b60015481565b600260009054906101000a900473ffffffffffffffffffffffffffffffffffffffff1673ffffffffffffffffffffffffffffffffffffffff163373ffffffffffffffffffffffffffffffffffffffff16141515610c3d57600080fd5b60008090505b6014811015610c9257610c85600782601481101515610c5e57fe5b0160009054906101000a900473ffffffffffffffffffffffffffffffffffffffff16611824565b8080600101915050610c43565b50600260009054906101000a900473ffffffffffffffffffffffffffffffffffffffff1673ffffffffffffffffffffffffffffffffffffffff16ff5b601b5481565b600260009054906101000a900473ffffffffffffffffffffffffffffffffffffffff1673ffffffffffffffffffffffffffffffffffffffff163373ffffffffffffffffffffffffffffffffffffffff16141515610d3057600080fd5b8060008190555050565b600060015434811515610d4957fe5b06141515610d5657600080fd5b6064600a3073ffffffffffffffffffffffffffffffffffffffff163102811515610d7c57fe5b043411151515610d8b57600080fd5b6060604051908101604052803373ffffffffffffffffffffffffffffffffffffffff1681526020013481526020016000430181525060036000601b54815260200190815260200160002060008201518160000160006101000a81548173ffffffffffffffffffffffffffffffffffffffff021916908373ffffffffffffffffffffffffffffffffffffffff1602179055506020820151816001015560408201518160020155905050610e3d600161193b565b7f7363e6581df4db69463222156be4a09656528b9f1302890fa4c0b60819b69fc6333460034301601b54604051808573ffffffffffffffffffffffffffffffffffffffff1673ffffffffffffffffffffffffffffffffffffffff16815260200184815260200183815260200182815260200194505050505060405180910390a1601b60008154809291906001019190505550565b60006003600083815260200190815260200160002090508060000160009054906101000a900473ffffffffffffffffffffffffffffffffffffffff1673ffffffffffffffffffffffffffffffffffffffff163373ffffffffffffffffffffffffffffffffffffffff16141515610f4657600080fd5b80600201544310151515610f5957600080fd5b60ff8160020154014311151515610f6f57600080fd5b6004600083815260200190815260200160002060009054906101000a900460ff16151515610f9c57600080fd5b610fa582610971565b60016004600084815260200190815260200160002060006101000a81548160ff021916908315150217905550600061101e602c60058060200260405190810160405280929190826005801561100f576020028201915b815481526020019060010190808311610ffb575b50505050508360010154611b6a565b905060008111156110b5573073ffffffffffffffffffffffffffffffffffffffff1631811115611063573073ffffffffffffffffffffffffffffffffffffffff163190505b61106d600061193b565b3373ffffffffffffffffffffffffffffffffffffffff166108fc829081150290604051600060405180830381858888f193505050501580156110b3573d6000803e3d6000fd5b505b7fde375d5f6628b29fc599d7672d0d7475a6b065940041879fa73f4e1db7d3ac208382604051808381526020018281526020019250505060405180910390a1505050565b601481565b60066020528060005260406000206000915090505481565b60056020528060005260406000206000915090508060000154908060010154905082565b600260009054906101000a900473ffffffffffffffffffffffffffffffffffffffff1681565b60316020528160005260406000208160058110151561117b57fe5b01600091509150505481565b600080600090505b60148110156114b2576000600660006007846014811015156111ad57fe5b0160009054906101000a900473ffffffffffffffffffffffffffffffffffffffff1673ffffffffffffffffffffffffffffffffffffffff1673ffffffffffffffffffffffffffffffffffffffff1681526020019081526020016000205414156112895760006005600060078460148110151561122557fe5b0160009054906101000a900473ffffffffffffffffffffffffffffffffffffffff1673ffffffffffffffffffffffffffffffffffffffff1673ffffffffffffffffffffffffffffffffffffffff168152602001908152602001600020600001819055505b6113196006600060078460148110151561129f57fe5b0160009054906101000a900473ffffffffffffffffffffffffffffffffffffffff1673ffffffffffffffffffffffffffffffffffffffff1673ffffffffffffffffffffffffffffffffffffffff168152602001908152602001600020543073ffffffffffffffffffffffffffffffffffffffff1631611519565b9150816006600060078460148110151561132f57fe5b0160009054906101000a900473ffffffffffffffffffffffffffffffffffffffff1673ffffffffffffffffffffffffffffffffffffffff1673ffffffffffffffffffffffffffffffffffffffff1681526020019081526020016000205481151561139557fe5b04600560006007846014811015156113a957fe5b0160009054906101000a900473ffffffffffffffffffffffffffffffffffffffff1673ffffffffffffffffffffffffffffffffffffffff1673ffffffffffffffffffffffffffffffffffffffff16815260200190815260200160002060000181905550813073ffffffffffffffffffffffffffffffffffffffff163181151561142e57fe5b046005600060078460148110151561144257fe5b0160009054906101000a900473ffffffffffffffffffffffffffffffffffffffff1673ffffffffffffffffffffffffffffffffffffffff1673ffffffffffffffffffffffffffffffffffffffff16815260200190815260200160002060010181905550808060010191505061118f565b5050565b6007816014811015156114c557fe5b016000915054906101000a900473ffffffffffffffffffffffffffffffffffffffff1681565b6114f4346116c2565b15156114ff57600080fd5b6115093334611bab565b611511611187565b565b601c5481565b6000805b60008314151561154057829050828481151561153557fe5b06925080935061151d565b8391505092915050565b600080600090506000809050600090505b600560ff168160ff1610156115b957600060326000868460ff1660058110151561158157fe5b6020020151815260200190815260200160002060006101000a81548160ff021916908360ff160217905550808060010191505061155b565b600090505b600560ff168160ff1610156116aa57600160326000868460ff166005811015156115e457fe5b6020020151815260200190815260200160002060008282829054906101000a900460ff160192506101000a81548160ff021916908360ff1602179055508160ff1660326000868460ff1660058110151561163a57fe5b6020020151815260200190815260200160002060009054906101000a900460ff1660ff16111561169d5760326000858360ff1660058110151561167957fe5b6020020151815260200190815260200160002060009054906101000a900460ff1691505b80806001019150506115be565b8160ff1692505050919050565b600081565b60005481565b600080600054838115156116d257fe5b06149050919050565b6116e361207f565b6031600083815260200190815260200160002060058060200260405190810160405280929190826005801561172d576020028201915b815481526020019060010190808311611719575b50505050509050919050565b8073ffffffffffffffffffffffffffffffffffffffff163373ffffffffffffffffffffffffffffffffffffffff1614806117c05750600260009054906101000a900473ffffffffffffffffffffffffffffffffffffffff1673ffffffffffffffffffffffffffffffffffffffff163373ffffffffffffffffffffffffffffffffffffffff16145b15156117cb57600080fd5b6117d481611824565b6117dc611187565b50565b60326020528060005260406000206000915054906101000a900460ff1681565b60046020528060005260406000206000915054906101000a900460ff1681565b600a81565b6000600660008373ffffffffffffffffffffffffffffffffffffffff1673ffffffffffffffffffffffffffffffffffffffff168152602001908152602001600020541115611938578073ffffffffffffffffffffffffffffffffffffffff166108fc600660008473ffffffffffffffffffffffffffffffffffffffff1673ffffffffffffffffffffffffffffffffffffffff168152602001908152602001600020549081150290604051600060405180830381858888f193505050501580156118f1573d6000803e3d6000fd5b506000600660008373ffffffffffffffffffffffffffffffffffffffff1673ffffffffffffffffffffffffffffffffffffffff168152602001908152602001600020819055505b50565b60008060008090505b6014811015611b64576005600060078360148110151561196057fe5b0160009054906101000a900473ffffffffffffffffffffffffffffffffffffffff1673ffffffffffffffffffffffffffffffffffffffff1673ffffffffffffffffffffffffffffffffffffffff168152602001908152602001600020600001549250600560006007836014811015156119d557fe5b0160009054906101000a900473ffffffffffffffffffffffffffffffffffffffff1673ffffffffffffffffffffffffffffffffffffffff1673ffffffffffffffffffffffffffffffffffffffff1681526020019081526020016000206001015491508315611acc5781833402811515611a4a57fe5b0460066000600784601481101515611a5e57fe5b0160009054906101000a900473ffffffffffffffffffffffffffffffffffffffff1673ffffffffffffffffffffffffffffffffffffffff1673ffffffffffffffffffffffffffffffffffffffff16815260200190815260200160002060008282540192505081905550611b57565b81833402811515611ad957fe5b0460066000600784601481101515611aed57fe5b0160009054906101000a900473ffffffffffffffffffffffffffffffffffffffff1673ffffffffffffffffffffffffffffffffffffffff1673ffffffffffffffffffffffffffffffffffffffff168152602001908152602001600020600082825403925050819055505b8080600101915050611944565b50505050565b600080611b768461154a565b90506004811415611b8d57601b8302915050611ba5565b6005811415611ba357610cb48302915050611ba5565b505b92915050565b60006006600060076000601481101515611bc157fe5b0160009054906101000a900473ffffffffffffffffffffffffffffffffffffffff1673ffffffffffffffffffffffffffffffffffffffff1673ffffffffffffffffffffffffffffffffffffffff1681526020019081526020016000205490506000809050600080600090505b6014811015611d0857600781601481101515611c4557fe5b0160009054906101000a900473ffffffffffffffffffffffffffffffffffffffff1691508573ffffffffffffffffffffffffffffffffffffffff168273ffffffffffffffffffffffffffffffffffffffff161415611cfb5784600660008873ffffffffffffffffffffffffffffffffffffffff1673ffffffffffffffffffffffffffffffffffffffff16815260200190815260200160002060008282540192505081905550611cf2611187565b5050505061203e565b8080600101915050611c2d565b5060008090505b6014811015611f3157600781601481101515611d2757fe5b0160009054906101000a900473ffffffffffffffffffffffffffffffffffffffff1691506000600660008473ffffffffffffffffffffffffffffffffffffffff1673ffffffffffffffffffffffffffffffffffffffff168152602001908152602001600020541415611e375785600782601481101515611da357fe5b0160006101000a81548173ffffffffffffffffffffffffffffffffffffffff021916908373ffffffffffffffffffffffffffffffffffffffff16021790555084600660008873ffffffffffffffffffffffffffffffffffffffff1673ffffffffffffffffffffffffffffffffffffffff16815260200190815260200160002081905550611e2e611187565b5050505061203e565b8360066000600784601481101515611e4b57fe5b0160009054906101000a900473ffffffffffffffffffffffffffffffffffffffff1673ffffffffffffffffffffffffffffffffffffffff1673ffffffffffffffffffffffffffffffffffffffff168152602001908152602001600020541015611f245760066000600783601481101515611ec157fe5b0160009054906101000a900473ffffffffffffffffffffffffffffffffffffffff1673ffffffffffffffffffffffffffffffffffffffff1673ffffffffffffffffffffffffffffffffffffffff1681526020019081526020016000205493508092505b8080600101915050611d0f565b50606460148402811515611f4157fe5b04830184111561202a57600782601481101515611f5a57fe5b0160009054906101000a900473ffffffffffffffffffffffffffffffffffffffff169050611f8781611824565b84600783601481101515611f9757fe5b0160006101000a81548173ffffffffffffffffffffffffffffffffffffffff021916908373ffffffffffffffffffffffffffffffffffffffff16021790555083600660008373ffffffffffffffffffffffffffffffffffffffff1673ffffffffffffffffffffffffffffffffffffffff16815260200190815260200160002081905550612022611187565b50505061203e565b6001600014151561203a57600080fd5b5050505b5050565b826005810192821561206e579182015b8281111561206d578254825591600101919060010190612052565b5b50905061207b91906120a2565b5090565b60a060405190810160405280600590602082028038833980820191505090505090565b6120c491905b808211156120c05760008160009055506001016120a8565b5090565b9056fea165627a7a72305820b7d457d0d764edc1271f28b9e65085bfb141b15d17a5ee952ebc9ca7f836fed30029",
  "source": "pragma solidity ^0.5.0;\n\ncontract SlotMachine {\n\n  // ******************************\n// DEFINE THE MACHINE\n\n  // MACHINE SPECIFIC CONSTANTS AND VARIABLES\n  uint8 constant numReel = 5;\n\n  // DEFINE THE PROBABILITIES FOR THE REEL SYMBOLS\n  function makeMachine() internal {\n    reels[0].probDenominator = 100;\n    reels[0].probs = [12, 11, 11, 11, 11, 11, 11, 11, 11];\n    reels[0].eventLabels = [0, 1, 2, 3, 4, 5, 6, 7, 8];\n    reels[1].probDenominator = 100;\n    reels[1].probs = [12, 11, 11, 11, 11, 11, 11, 11, 11];\n    reels[1].eventLabels = [0, 1, 2, 3, 4, 5, 6, 7, 8];\n    reels[2].probDenominator = 100;\n    reels[2].probs = [12, 11, 11, 11, 11, 11, 11, 11, 11];\n    reels[2].eventLabels = [0, 1, 2, 3, 4, 5, 6, 7, 8];\n    reels[3].probDenominator = 100;\n    reels[3].probs = [12, 11, 11, 11, 11, 11, 11, 11, 11];\n    reels[3].eventLabels = [0, 1, 2, 3, 4, 5, 6, 7, 8];\n    reels[4].probDenominator = 100;\n    reels[4].probs = [12, 11, 11, 11, 11, 11, 11, 11, 11];\n    reels[4].eventLabels = [0, 1, 2, 3, 4, 5, 6, 7, 8];\n}\n\n  // CALCULATE THE PAYOUT\n  function paytable(uint[numReel] memory outcome, uint betAmount) internal returns (uint) {\n    uint maxMatch = countMaxMatch(outcome);\n    if (maxMatch == 4) {\n      return betAmount * 27;\n    }\n    if (maxMatch == 5) {\n      return betAmount * 3252;\n    }\n}\n\n// END MACHINE DEFINITION\n// ******************************************\n\n  // STRUCTURES\n  struct Reel {\n    uint probDenominator;\n    uint[] probs;\n    uint[] eventLabels;\n  }\n\n  struct Bet {\n    address user;\n    uint amount;\n    uint block;\n  }\n\n  struct HousePercentage {\n    uint numerator;\n    uint denominator;\n  }\n\n  // PARAMETERS\n  uint constant public maxHouseMembers = 20; // max number of investors/owners\n  uint constant public minPercentageIncrease = 20; // min overage for kicking someone on funding\n  uint constant public blockDelay = 0; // 0 for debugging, 3 for production\n  uint constant public maxBetAsBalancePercentage = 10;  // percentage of house max bet\n  uint public minFundDivisor = 1000000000;\n  uint public minBetDivisor = minFundDivisor;\n\n\n  // VARIABLES\n  address payable public owner;\n  mapping(uint => Bet) public bets;\n  mapping(uint => bool) public alreadyPlayed;\n  mapping(address => HousePercentage) public housePercentages;\n  mapping(address => uint) public houseAccounts;\n  address payable [maxHouseMembers] public houseMemberArray;\n  uint public counter = 0;\n  uint public nonceForRandom = 0;\n  Reel[numReel] public reels;\n  uint[numReel] thisOutcome;\n  mapping(uint => uint[numReel]) public outcomes;\n  mapping(uint => uint8) public symbolCounter;\n\n  // DEFINE EVENTS\n  event BetPlaced(address user, uint amount, uint block, uint counter);\n  event Awarded(uint id, uint award);\n  event Spin(uint id, uint award);\n\n  constructor () public payable {\n    owner = msg.sender;\n    makeMachine();\n  }\n\n  // DETERMINE THE OUTCOME SYMBOL FOR EACH REEL\n  function sample(uint id) public {\n    uint thisRandom;\n    uint thisHash;\n    uint runningProbSum;\n    uint i;\n\n    for (i = 0; i < numReel; i++) {\n      thisHash = uint(keccak256(abi.encodePacked(block.number, msg.sender, i)));\n      thisRandom = thisHash % reels[i].probDenominator;\n      // CONVERT RANDOM NUMBER TO EVENT\n      runningProbSum = reels[i].probs[0] - 1;\n      for (uint j = 0; j < reels[i].probs.length; j++){\n        if (thisRandom <= runningProbSum) {\n          thisOutcome[i] = reels[i].eventLabels[j];\n          break;\n        }\n        else {\n          runningProbSum += reels[i].probs[j + 1];\n        }\n      }\n    }\n    outcomes[id] = thisOutcome;\n  }\n\n  // DISTRIBUTE BETS AND AWARDS ACCORDING TO PERCENTAGE OWNERSHIP\n  function distributeAmount(bool bet) internal {\n    uint numer;\n    uint denom;\n\n    for (uint i = 0; i < maxHouseMembers; i++) {\n      numer = housePercentages[houseMemberArray[i]].numerator;\n      denom = housePercentages[houseMemberArray[i]].denominator;\n\n      // INCOMING BET\n      if (bet) {\n        houseAccounts[houseMemberArray[i]] += (msg.value * numer)/denom;\n      }\n      // OUTGOING PAYOUT\n      else {\n        houseAccounts[houseMemberArray[i]] -= (msg.value * numer)/denom;\n      }\n    }\n  }\n\n  // PLACE A WAGER\n  function wager () payable public {\n    require(msg.value % minBetDivisor == 0);\n    require(msg.value <= (address(this).balance * maxBetAsBalancePercentage) / 100);\n    bets[counter] = Bet(msg.sender, msg.value, block.number + blockDelay);\n    distributeAmount(true);\n    emit BetPlaced(msg.sender, msg.value, block.number + 3, counter);\n    counter++;\n  }\n\n  // PLAY THE GAME\n  function play (uint id) public {\n      Bet storage bet = bets[id];\n      require(msg.sender == bet.user);\n      require(block.number >= bet.block);\n      require(block.number <= bet.block + 255); // make this into a refund\n      require(!alreadyPlayed[id]);\n\n      sample(id);\n\n      alreadyPlayed[id] = true;\n      uint award = paytable(thisOutcome, bet.amount);\n      if (award > 0) {\n        if (award > address(this).balance) {\n          award = address(this).balance;\n        }\n        distributeAmount(false);\n        msg.sender.transfer(award);\n      }\n\n      emit Awarded(id, award);\n  }\n\n  // TRY TO ADD A NEW MEMBER (OWNER/INVESTOR)\n  function addMember(address payable addressToAdd, uint initialFund) private {\n\n    uint currentMin = houseAccounts[houseMemberArray[0]];\n    uint currentMinIndex = 0;\n    address payable thisAddress;\n\n    // CHECK IF ALREADY A MEMBER\n    for (uint i = 0; i < maxHouseMembers; i++){\n      thisAddress = houseMemberArray[i];\n      if (thisAddress == addressToAdd) {\n          houseAccounts[addressToAdd] += initialFund;\n          calculateHousePercentages();\n          return;\n      }\n    }\n\n    // CHECK IF ANY EMPTY SLOTS\n    for (uint i = 0; i < maxHouseMembers; i++){\n      thisAddress = houseMemberArray[i];\n      if (houseAccounts[thisAddress] == 0) {\n          houseMemberArray[i] = addressToAdd;\n          houseAccounts[addressToAdd] = initialFund;\n          calculateHousePercentages();\n          return;\n      }\n      else {\n        if (houseAccounts[houseMemberArray[i]] < currentMin) {\n          currentMin = houseAccounts[houseMemberArray[i]];\n          currentMinIndex = i;\n        }\n      }\n    }\n\n    // BUMP MIN MEMBER IF INITIAL FUND IS GREATER\n    if ( initialFund > currentMin + ((currentMin * minPercentageIncrease)/100) ) {\n      thisAddress = houseMemberArray[currentMinIndex];\n      houseRemoveMember(thisAddress);\n      houseMemberArray[currentMinIndex] = addressToAdd;\n      houseAccounts[thisAddress] = initialFund;\n      calculateHousePercentages();\n      return;\n    }\n    else {\n      require(0 == 1);\n    }\n  }\n\n  // EUCLID'S ALGORITHM FOR GREATEST COMMON DIVISOR\n  function gcdCalculate(uint a, uint b) public pure returns (uint) {\n    uint t;\n    while (b != 0) {\n      t = b;\n      b = a % b;\n      a = t;\n    }\n    return a;\n  }\n\n  function countMaxMatch(uint[numReel] memory outcomeResult) public returns (uint) {\n    uint8 max = 0;\n    uint8 i = 0;\n\n    for (i = 0; i < numReel; i++) {\n        symbolCounter[outcomeResult[i]] = 0;\n    }\n\n    for (i = 0; i < numReel; i++) {\n      symbolCounter[outcomeResult[i]] += 1;\n      if (symbolCounter[outcomeResult[i]] > max) {\n        max = symbolCounter[outcomeResult[i]];\n      }\n    }\n    return max;\n  }\n\n  // RECALULATE ALL OWNERSHIP PERCENTAGES\n  function calculateHousePercentages() public {\n    uint gcd;\n\n    for (uint i = 0; i < maxHouseMembers; i++) {\n      if (houseAccounts[houseMemberArray[i]] == 0) {\n        housePercentages[houseMemberArray[i]].numerator = 0;\n      }\n      gcd = gcdCalculate(houseAccounts[houseMemberArray[i]], address(this).balance);\n\n      housePercentages[houseMemberArray[i]].numerator = houseAccounts[houseMemberArray[i]]/gcd;\n      housePercentages[houseMemberArray[i]].denominator = address(this).balance/gcd;\n    }\n  }\n\n  //  ALLOW OWNER TO SET AMOUNT WHICH MUST EVENLY DIVIDE ALL FUNDS\n  function setMinFundDivisor(uint amount) public {\n    require(msg.sender == owner);\n    minFundDivisor = amount;\n  }\n\n  // CHECK THAT INITIAL FUND IS MULTIPLE OF minFundDivisor\n  function multipleOf(uint amount) public view returns (bool) {\n    return amount % minFundDivisor == 0;\n  }\n\n  // FUND THE CASINO\n  function fund () public payable {\n    require(multipleOf(msg.value));\n    addMember(msg.sender, msg.value);\n    calculateHousePercentages();\n  }\n\n  // REMOVE A MEMBER (OWNER/INVESTOR)\n  function houseRemoveMember(address payable houseMember) private {\n    if (houseAccounts[houseMember] > 0) {\n      houseMember.transfer(houseAccounts[houseMember]);\n      houseAccounts[houseMember] = 0;\n    }\n  }\n\n  // WITHDRAW AND REMOVE MEMBER\n  function houseWithdraw (address payable houseMember) public {\n    require(msg.sender == houseMember || msg.sender == owner);\n    houseRemoveMember(houseMember);\n    calculateHousePercentages();\n  }\n\n  // TRANSFER ALL FUNDS TO MEMBERS AND DESTROY THE CONTRACT\n  function kill () public {\n    require(msg.sender == owner);\n    for (uint i = 0; i < maxHouseMembers; i++) {\n      houseRemoveMember(houseMemberArray[i]);\n    }\n    selfdestruct(owner);\n  }\n\n  // GETTERS FOR DEBUGGING\n  function outcomeGet(uint id) public view returns (uint[numReel] memory) {\n    return outcomes[id];\n  }\n\n  function getBalance () view public returns (uint) {\n    return address(this).balance;\n  }\n}\n",
  "sourcePath": "/Users/mettinger/github/casino/contracts/slotMachine.sol",
  "compiler": {
    "name": "solc",
    "version": "0.5.0+commit.1d4f565a.Emscripten.clang"
  },
  "schemaVersion": "3.0.1",
  "updatedAt": "2019-02-18T17:48:33.119Z",
  "devdoc": {
    "methods": {}
  },
  "userdoc": {
    "methods": {}
  }
}