{
  "contractName": "SlotMachine",
  "abi": [
    {
      "constant": true,
      "inputs": [],
      "name": "maxMultiplier",
      "outputs": [
        {
          "name": "",
          "type": "uint256"
        }
      ],
      "payable": false,
      "stateMutability": "view",
      "type": "function",
      "signature": "0x0187aea0"
    },
    {
      "constant": true,
      "inputs": [],
      "name": "houseAccountMinIndex",
      "outputs": [
        {
          "name": "",
          "type": "uint8"
        }
      ],
      "payable": false,
      "stateMutability": "view",
      "type": "function",
      "signature": "0x15fa9e80"
    },
    {
      "constant": true,
      "inputs": [
        {
          "name": "",
          "type": "uint256"
        }
      ],
      "name": "bets",
      "outputs": [
        {
          "name": "user",
          "type": "address"
        },
        {
          "name": "amount",
          "type": "uint256"
        },
        {
          "name": "block",
          "type": "uint256"
        }
      ],
      "payable": false,
      "stateMutability": "view",
      "type": "function",
      "signature": "0x22af00fa"
    },
    {
      "constant": true,
      "inputs": [
        {
          "name": "",
          "type": "uint256"
        }
      ],
      "name": "reels",
      "outputs": [
        {
          "name": "probDenominator",
          "type": "uint256"
        }
      ],
      "payable": false,
      "stateMutability": "view",
      "type": "function",
      "signature": "0x2422eb9c"
    },
    {
      "constant": true,
      "inputs": [],
      "name": "houseAccountMin",
      "outputs": [
        {
          "name": "",
          "type": "uint256"
        }
      ],
      "payable": false,
      "stateMutability": "view",
      "type": "function",
      "signature": "0x28eb32c1"
    },
    {
      "constant": true,
      "inputs": [],
      "name": "maxHouseMembers",
      "outputs": [
        {
          "name": "",
          "type": "uint8"
        }
      ],
      "payable": false,
      "stateMutability": "view",
      "type": "function",
      "signature": "0x2ac485aa"
    },
    {
      "constant": true,
      "inputs": [],
      "name": "award",
      "outputs": [
        {
          "name": "",
          "type": "uint256"
        }
      ],
      "payable": false,
      "stateMutability": "view",
      "type": "function",
      "signature": "0x41a494c5"
    },
    {
      "constant": true,
      "inputs": [],
      "name": "counter",
      "outputs": [
        {
          "name": "",
          "type": "uint256"
        }
      ],
      "payable": false,
      "stateMutability": "view",
      "type": "function",
      "signature": "0x61bc221a"
    },
    {
      "constant": true,
      "inputs": [],
      "name": "minPercentageIncrease",
      "outputs": [
        {
          "name": "",
          "type": "uint256"
        }
      ],
      "payable": false,
      "stateMutability": "view",
      "type": "function",
      "signature": "0x72638b9c"
    },
    {
      "constant": true,
      "inputs": [
        {
          "name": "",
          "type": "uint256"
        }
      ],
      "name": "houseAccountsArray",
      "outputs": [
        {
          "name": "",
          "type": "uint256"
        }
      ],
      "payable": false,
      "stateMutability": "view",
      "type": "function",
      "signature": "0x74f164cd"
    },
    {
      "constant": true,
      "inputs": [],
      "name": "minDivisor",
      "outputs": [
        {
          "name": "",
          "type": "uint256"
        }
      ],
      "payable": false,
      "stateMutability": "view",
      "type": "function",
      "signature": "0x7aa205e9"
    },
    {
      "constant": true,
      "inputs": [],
      "name": "owner",
      "outputs": [
        {
          "name": "",
          "type": "address"
        }
      ],
      "payable": false,
      "stateMutability": "view",
      "type": "function",
      "signature": "0x8da5cb5b"
    },
    {
      "constant": true,
      "inputs": [
        {
          "name": "",
          "type": "uint256"
        },
        {
          "name": "",
          "type": "uint256"
        }
      ],
      "name": "outcomes",
      "outputs": [
        {
          "name": "",
          "type": "uint256"
        }
      ],
      "payable": false,
      "stateMutability": "view",
      "type": "function",
      "signature": "0x962254a4"
    },
    {
      "constant": true,
      "inputs": [
        {
          "name": "",
          "type": "uint256"
        }
      ],
      "name": "houseMemberArray",
      "outputs": [
        {
          "name": "",
          "type": "address"
        }
      ],
      "payable": false,
      "stateMutability": "view",
      "type": "function",
      "signature": "0x9e30f05d"
    },
    {
      "constant": true,
      "inputs": [
        {
          "name": "",
          "type": "uint256"
        }
      ],
      "name": "houseActiveArray",
      "outputs": [
        {
          "name": "",
          "type": "bool"
        }
      ],
      "payable": false,
      "stateMutability": "view",
      "type": "function",
      "signature": "0xba0549aa"
    },
    {
      "constant": true,
      "inputs": [],
      "name": "nonceForRandom",
      "outputs": [
        {
          "name": "",
          "type": "uint256"
        }
      ],
      "payable": false,
      "stateMutability": "view",
      "type": "function",
      "signature": "0xc947f061"
    },
    {
      "constant": true,
      "inputs": [],
      "name": "blockDelay",
      "outputs": [
        {
          "name": "",
          "type": "uint256"
        }
      ],
      "payable": false,
      "stateMutability": "view",
      "type": "function",
      "signature": "0xd98f6088"
    },
    {
      "constant": true,
      "inputs": [
        {
          "name": "",
          "type": "uint256"
        }
      ],
      "name": "symbolCounter",
      "outputs": [
        {
          "name": "",
          "type": "uint8"
        }
      ],
      "payable": false,
      "stateMutability": "view",
      "type": "function",
      "signature": "0xf729c2f4"
    },
    {
      "constant": true,
      "inputs": [
        {
          "name": "",
          "type": "uint256"
        }
      ],
      "name": "alreadyPlayed",
      "outputs": [
        {
          "name": "",
          "type": "bool"
        }
      ],
      "payable": false,
      "stateMutability": "view",
      "type": "function",
      "signature": "0xf977f85e"
    },
    {
      "inputs": [],
      "payable": true,
      "stateMutability": "payable",
      "type": "constructor",
      "signature": "constructor"
    },
    {
      "anonymous": false,
      "inputs": [
        {
          "indexed": false,
          "name": "user",
          "type": "address"
        },
        {
          "indexed": false,
          "name": "amount",
          "type": "uint256"
        },
        {
          "indexed": false,
          "name": "block",
          "type": "uint256"
        },
        {
          "indexed": false,
          "name": "counter",
          "type": "uint256"
        }
      ],
      "name": "BetPlaced",
      "type": "event",
      "signature": "0x7363e6581df4db69463222156be4a09656528b9f1302890fa4c0b60819b69fc6"
    },
    {
      "anonymous": false,
      "inputs": [
        {
          "indexed": false,
          "name": "id",
          "type": "uint256"
        },
        {
          "indexed": false,
          "name": "award",
          "type": "uint256"
        }
      ],
      "name": "Awarded",
      "type": "event",
      "signature": "0xde375d5f6628b29fc599d7672d0d7475a6b065940041879fa73f4e1db7d3ac20"
    },
    {
      "anonymous": false,
      "inputs": [
        {
          "indexed": false,
          "name": "id",
          "type": "uint256"
        },
        {
          "indexed": false,
          "name": "award",
          "type": "uint256"
        }
      ],
      "name": "Spin",
      "type": "event",
      "signature": "0x70907b7a890a9bb1241130b7270a867d408a17aad45906e17b3845a0ab01d621"
    },
    {
      "constant": false,
      "inputs": [
        {
          "name": "id",
          "type": "uint256"
        }
      ],
      "name": "sample",
      "outputs": [],
      "payable": false,
      "stateMutability": "nonpayable",
      "type": "function",
      "signature": "0x10fa1878"
    },
    {
      "constant": false,
      "inputs": [],
      "name": "wager",
      "outputs": [],
      "payable": true,
      "stateMutability": "payable",
      "type": "function",
      "signature": "0x667d5d22"
    },
    {
      "constant": false,
      "inputs": [
        {
          "name": "id",
          "type": "uint256"
        }
      ],
      "name": "play",
      "outputs": [],
      "payable": false,
      "stateMutability": "nonpayable",
      "type": "function",
      "signature": "0x6898f82b"
    },
    {
      "constant": false,
      "inputs": [],
      "name": "minHouseAccountGet",
      "outputs": [],
      "payable": false,
      "stateMutability": "nonpayable",
      "type": "function",
      "signature": "0xe456dd67"
    },
    {
      "constant": false,
      "inputs": [],
      "name": "fund",
      "outputs": [],
      "payable": true,
      "stateMutability": "payable",
      "type": "function",
      "signature": "0xb60d4288"
    },
    {
      "constant": false,
      "inputs": [
        {
          "name": "houseMember",
          "type": "address"
        }
      ],
      "name": "houseWithdraw",
      "outputs": [],
      "payable": false,
      "stateMutability": "nonpayable",
      "type": "function",
      "signature": "0xe9d3ea6b"
    },
    {
      "constant": false,
      "inputs": [],
      "name": "kill",
      "outputs": [],
      "payable": false,
      "stateMutability": "nonpayable",
      "type": "function",
      "signature": "0x41c0e1b5"
    },
    {
      "constant": false,
      "inputs": [
        {
          "name": "outcomeResult",
          "type": "uint256[5]"
        }
      ],
      "name": "countMaxMatch",
      "outputs": [
        {
          "name": "",
          "type": "uint256"
        }
      ],
      "payable": false,
      "stateMutability": "nonpayable",
      "type": "function",
      "signature": "0xd8fc0e9a"
    },
    {
      "constant": true,
      "inputs": [
        {
          "name": "possibleMemberAddress",
          "type": "address"
        }
      ],
      "name": "indexFromAddressGet",
      "outputs": [
        {
          "name": "",
          "type": "bool"
        },
        {
          "name": "",
          "type": "uint8"
        }
      ],
      "payable": false,
      "stateMutability": "view",
      "type": "function",
      "signature": "0x9246bed2"
    },
    {
      "constant": false,
      "inputs": [
        {
          "name": "amount",
          "type": "uint256"
        }
      ],
      "name": "setminDivisor",
      "outputs": [],
      "payable": false,
      "stateMutability": "nonpayable",
      "type": "function",
      "signature": "0xb4447046"
    },
    {
      "constant": true,
      "inputs": [
        {
          "name": "id",
          "type": "uint256"
        }
      ],
      "name": "outcomeGet",
      "outputs": [
        {
          "name": "",
          "type": "uint256[5]"
        }
      ],
      "payable": false,
      "stateMutability": "view",
      "type": "function",
      "signature": "0xe64d567b"
    },
    {
      "constant": true,
      "inputs": [],
      "name": "getBalance",
      "outputs": [
        {
          "name": "",
          "type": "uint256"
        }
      ],
      "payable": false,
      "stateMutability": "view",
      "type": "function",
      "signature": "0x12065fe0"
    },
    {
      "constant": true,
      "inputs": [],
      "name": "minInvestment",
      "outputs": [
        {
          "name": "",
          "type": "uint256"
        }
      ],
      "payable": false,
      "stateMutability": "view",
      "type": "function",
      "signature": "0x8ac2c680"
    },
    {
      "constant": true,
      "inputs": [
        {
          "name": "thisAddress",
          "type": "address"
        }
      ],
      "name": "houseAccountGet",
      "outputs": [
        {
          "name": "",
          "type": "uint256"
        }
      ],
      "payable": false,
      "stateMutability": "view",
      "type": "function",
      "signature": "0x8e56aa43"
    }
  ],
  "bytecode": "0x6080604052633b9aca006000556000600455600060055560006046556000604760006101000a81548160ff021916908360ff16021790555033600160006101000a81548173ffffffffffffffffffffffffffffffffffffffff021916908373ffffffffffffffffffffffffffffffffffffffff1602179055506200009162000097640100000000026401000000009004565b6200073a565b606460066000600581101515620000aa57fe5b600302016000018190555061012060405190810160405280600c60ff168152602001600b60ff168152602001600b60ff168152602001600b60ff168152602001600b60ff168152602001600b60ff168152602001600b60ff168152602001600b60ff168152602001600b60ff16815250600660006005811015156200012b57fe5b6003020160010190600962000142929190620006bb565b5061012060405190810160405280600060ff168152602001600160ff168152602001600260ff168152602001600360ff168152602001600460ff168152602001600560ff168152602001600660ff168152602001600760ff168152602001600860ff1681525060066000600581101515620001b957fe5b60030201600201906009620001d0929190620006bb565b50606460066001600581101515620001e457fe5b600302016000018190555061012060405190810160405280600c60ff168152602001600b60ff168152602001600b60ff168152602001600b60ff168152602001600b60ff168152602001600b60ff168152602001600b60ff168152602001600b60ff168152602001600b60ff16815250600660016005811015156200026557fe5b600302016001019060096200027c929190620006bb565b5061012060405190810160405280600060ff168152602001600160ff168152602001600260ff168152602001600360ff168152602001600460ff168152602001600560ff168152602001600660ff168152602001600760ff168152602001600860ff1681525060066001600581101515620002f357fe5b600302016002019060096200030a929190620006bb565b506064600660026005811015156200031e57fe5b600302016000018190555061012060405190810160405280600c60ff168152602001600b60ff168152602001600b60ff168152602001600b60ff168152602001600b60ff168152602001600b60ff168152602001600b60ff168152602001600b60ff168152602001600b60ff16815250600660026005811015156200039f57fe5b60030201600101906009620003b6929190620006bb565b5061012060405190810160405280600060ff168152602001600160ff168152602001600260ff168152602001600360ff168152602001600460ff168152602001600560ff168152602001600660ff168152602001600760ff168152602001600860ff16815250600660026005811015156200042d57fe5b6003020160020190600962000444929190620006bb565b506064600660036005811015156200045857fe5b600302016000018190555061012060405190810160405280600c60ff168152602001600b60ff168152602001600b60ff168152602001600b60ff168152602001600b60ff168152602001600b60ff168152602001600b60ff168152602001600b60ff168152602001600b60ff1681525060066003600581101515620004d957fe5b60030201600101906009620004f0929190620006bb565b5061012060405190810160405280600060ff168152602001600160ff168152602001600260ff168152602001600360ff168152602001600460ff168152602001600560ff168152602001600660ff168152602001600760ff168152602001600860ff16815250600660036005811015156200056757fe5b600302016002019060096200057e929190620006bb565b506064600660046005811015156200059257fe5b600302016000018190555061012060405190810160405280600c60ff168152602001600b60ff168152602001600b60ff168152602001600b60ff168152602001600b60ff168152602001600b60ff168152602001600b60ff168152602001600b60ff168152602001600b60ff16815250600660046005811015156200061357fe5b600302016001019060096200062a929190620006bb565b5061012060405190810160405280600060ff168152602001600160ff168152602001600260ff168152602001600360ff168152602001600460ff168152602001600560ff168152602001600660ff168152602001600760ff168152602001600860ff1681525060066004600581101515620006a157fe5b60030201600201906009620006b8929190620006bb565b50565b828054828255906000526020600020908101928215620006ff579160200282015b82811115620006fe578251829060ff16905591602001919060010190620006dc565b5b5090506200070e919062000712565b5090565b6200073791905b808211156200073357600081600090555060010162000719565b5090565b90565b611bb1806200074a6000396000f3fe6080604052600436106101a1576000357c0100000000000000000000000000000000000000000000000000000000900463ffffffff1680630187aea0146101a657806310fa1878146101d157806312065fe01461020c57806315fa9e801461023757806322af00fa146102685780632422eb9c146102f157806328eb32c1146103405780632ac485aa1461036b57806341a494c51461039c57806341c0e1b5146103c757806361bc221a146103de578063667d5d22146104095780636898f82b1461041357806372638b9c1461044e57806374f164cd146104795780637aa205e9146104c85780638ac2c680146104f35780638da5cb5b1461051e5780638e56aa43146105755780639246bed2146105da578063962254a4146106505780639e30f05d146106a9578063b444704614610724578063b60d42881461075f578063ba0549aa14610769578063c947f061146107bc578063d8fc0e9a146107e7578063d98f60881461086d578063e456dd6714610898578063e64d567b146108af578063e9d3ea6b14610926578063f729c2f414610977578063f977f85e146109cc575b600080fd5b3480156101b257600080fd5b506101bb610a1f565b6040518082815260200191505060405180910390f35b3480156101dd57600080fd5b5061020a600480360360208110156101f457600080fd5b8101908080359060200190929190505050610a25565b005b34801561021857600080fd5b50610221610bfe565b6040518082815260200191505060405180910390f35b34801561024357600080fd5b5061024c610c1d565b604051808260ff1660ff16815260200191505060405180910390f35b34801561027457600080fd5b506102a16004803603602081101561028b57600080fd5b8101908080359060200190929190505050610c30565b604051808473ffffffffffffffffffffffffffffffffffffffff1673ffffffffffffffffffffffffffffffffffffffff168152602001838152602001828152602001935050505060405180910390f35b3480156102fd57600080fd5b5061032a6004803603602081101561031457600080fd5b8101908080359060200190929190505050610c7a565b6040518082815260200191505060405180910390f35b34801561034c57600080fd5b50610355610c9d565b6040518082815260200191505060405180910390f35b34801561037757600080fd5b50610380610ca3565b604051808260ff1660ff16815260200191505060405180910390f35b3480156103a857600080fd5b506103b1610ca8565b6040518082815260200191505060405180910390f35b3480156103d357600080fd5b506103dc610cae565b005b3480156103ea57600080fd5b506103f3610d9e565b6040518082815260200191505060405180910390f35b610411610da4565b005b34801561041f57600080fd5b5061044c6004803603602081101561043657600080fd5b8101908080359060200190929190505050610f06565b005b34801561045a57600080fd5b5061046361113e565b6040518082815260200191505060405180910390f35b34801561048557600080fd5b506104b26004803603602081101561049c57600080fd5b8101908080359060200190929190505050611143565b6040518082815260200191505060405180910390f35b3480156104d457600080fd5b506104dd61115d565b6040518082815260200191505060405180910390f35b3480156104ff57600080fd5b50610508611163565b6040518082815260200191505060405180910390f35b34801561052a57600080fd5b50610533611180565b604051808273ffffffffffffffffffffffffffffffffffffffff1673ffffffffffffffffffffffffffffffffffffffff16815260200191505060405180910390f35b34801561058157600080fd5b506105c46004803603602081101561059857600080fd5b81019080803573ffffffffffffffffffffffffffffffffffffffff1690602001909291905050506111a6565b6040518082815260200191505060405180910390f35b3480156105e657600080fd5b50610629600480360360208110156105fd57600080fd5b81019080803573ffffffffffffffffffffffffffffffffffffffff1690602001909291905050506111e7565b60405180831515151581526020018260ff1660ff1681526020019250505060405180910390f35b34801561065c57600080fd5b506106936004803603604081101561067357600080fd5b810190808035906020019092919080359060200190929190505050611291565b6040518082815260200191505060405180910390f35b3480156106b557600080fd5b506106e2600480360360208110156106cc57600080fd5b81019080803590602001909291905050506112b8565b604051808273ffffffffffffffffffffffffffffffffffffffff1673ffffffffffffffffffffffffffffffffffffffff16815260200191505060405180910390f35b34801561073057600080fd5b5061075d6004803603602081101561074757600080fd5b81019080803590602001909291905050506112ed565b005b610767611353565b005b34801561077557600080fd5b506107a26004803603602081101561078c57600080fd5b810190808035906020019092919050505061137a565b604051808215151515815260200191505060405180910390f35b3480156107c857600080fd5b506107d16113a3565b6040518082815260200191505060405180910390f35b3480156107f357600080fd5b50610857600480360360a081101561080a57600080fd5b810190808060a001906005806020026040519081016040528092919082600560200280828437600081840152601f19601f82011690508083019250505050505091929192905050506113a9565b6040518082815260200191505060405180910390f35b34801561087957600080fd5b50610882611516565b6040518082815260200191505060405180910390f35b3480156108a457600080fd5b506108ad61151b565b005b3480156108bb57600080fd5b506108e8600480360360208110156108d257600080fd5b8101908080359060200190929190505050611615565b6040518082600560200280838360005b838110156109135780820151818401526020810190506108f8565b5050505090500191505060405180910390f35b34801561093257600080fd5b506109756004803603602081101561094957600080fd5b81019080803573ffffffffffffffffffffffffffffffffffffffff169060200190929190505050611673565b005b34801561098357600080fd5b506109b06004803603602081101561099a57600080fd5b8101908080359060200190929190505050611711565b604051808260ff1660ff16815260200191505060405180910390f35b3480156109d857600080fd5b50610a05600480360360208110156109ef57600080fd5b8101908080359060200190929190505050611731565b604051808215151515815260200191505060405180910390f35b610cb481565b600080600080600090505b600560ff16811015610bd357433382604051602001808481526020018373ffffffffffffffffffffffffffffffffffffffff1673ffffffffffffffffffffffffffffffffffffffff166c01000000000000000000000000028152601401828152602001935050505060405160208183030381529060405280519060200120600190049250600681600581101515610ac357fe5b600302016000015483811515610ad557fe5b0693506001600682600581101515610ae957fe5b600302016001016000815481101515610afe57fe5b906000526020600020015403915060008090505b600682600581101515610b2157fe5b6003020160010180549050811015610bc5578285111515610b8357600682600581101515610b4b57fe5b6003020160020181815481101515610b5f57fe5b9060005260206000200154601583600581101515610b7957fe5b0181905550610bc5565b600682600581101515610b9257fe5b6003020160010160018201815481101515610ba957fe5b9060005260206000200154830192508080600101915050610b12565b508080600101915050610a30565b6015601a6000878152602001908152602001600020906005610bf6929190611b00565b505050505050565b60003073ffffffffffffffffffffffffffffffffffffffff1631905090565b604760009054906101000a900460ff1681565b60026020528060005260406000206000915090508060000160009054906101000a900473ffffffffffffffffffffffffffffffffffffffff16908060010154908060020154905083565b600681600581101515610c8957fe5b600302016000915090508060000154905081565b60465481565b601481565b601c5481565b600160009054906101000a900473ffffffffffffffffffffffffffffffffffffffff1673ffffffffffffffffffffffffffffffffffffffff163373ffffffffffffffffffffffffffffffffffffffff16141515610d0a57600080fd5b60008090505b601460ff16811015610d6257610d55603282601481101515610d2e57fe5b0160009054906101000a900473ffffffffffffffffffffffffffffffffffffffff16611751565b8080600101915050610d10565b50600160009054906101000a900473ffffffffffffffffffffffffffffffffffffffff1673ffffffffffffffffffffffffffffffffffffffff16ff5b60045481565b6000805434811515610db257fe5b06141515610dbf57600080fd5b6060604051908101604052803373ffffffffffffffffffffffffffffffffffffffff1681526020013481526020016000430181525060026000600454815260200190815260200160002060008201518160000160006101000a81548173ffffffffffffffffffffffffffffffffffffffff021916908373ffffffffffffffffffffffffffffffffffffffff1602179055506020820151816001015560408201518160020155905050610e7260013461185b565b7f7363e6581df4db69463222156be4a09656528b9f1302890fa4c0b60819b69fc6333460004301600454604051808573ffffffffffffffffffffffffffffffffffffffff1673ffffffffffffffffffffffffffffffffffffffff16815260200184815260200183815260200182815260200194505050505060405180910390a1600460008154809291906001019190505550565b60006002600083815260200190815260200160002090508060000160009054906101000a900473ffffffffffffffffffffffffffffffffffffffff1673ffffffffffffffffffffffffffffffffffffffff163373ffffffffffffffffffffffffffffffffffffffff16141515610f7b57600080fd5b80600201544310151515610f8e57600080fd5b60ff8160020154014311151515610fa457600080fd5b6003600083815260200190815260200160002060009054906101000a900460ff16151515610fd157600080fd5b610fda82610a25565b60016003600084815260200190815260200160002060006101000a81548160ff0219169083151502179055506110516015600580602002604051908101604052809291908260058015611042576020028201915b81548152602001906001019080831161102e575b50505050508260010154611949565b601c819055506000601c5411156110f9573073ffffffffffffffffffffffffffffffffffffffff1631601c5411156110a2573073ffffffffffffffffffffffffffffffffffffffff1631601c819055505b6110af6000601c5461185b565b3373ffffffffffffffffffffffffffffffffffffffff166108fc601c549081150290604051600060405180830381858888f193505050501580156110f7573d6000803e3d6000fd5b505b7fde375d5f6628b29fc599d7672d0d7475a6b065940041879fa73f4e1db7d3ac2082601c54604051808381526020018281526020019250505060405180910390a15050565b601481565b601d8160148110151561115257fe5b016000915090505481565b60005481565b6000606460146046540281151561117657fe5b0460465401905090565b600160009054906101000a900473ffffffffffffffffffffffffffffffffffffffff1681565b60008060006111b4846111e7565b60ff169150915081156111db57601d816014811015156111d057fe5b0154925050506111e2565b6000925050505b919050565b60008060008090505b601460ff168160ff161015611280578373ffffffffffffffffffffffffffffffffffffffff1660328260ff1660148110151561122857fe5b0160009054906101000a900473ffffffffffffffffffffffffffffffffffffffff1673ffffffffffffffffffffffffffffffffffffffff16141561127357600181925092505061128c565b80806001019150506111f0565b50600080809050915091505b915091565b601a602052816000526040600020816005811015156112ac57fe5b01600091509150505481565b6032816014811015156112c757fe5b016000915054906101000a900473ffffffffffffffffffffffffffffffffffffffff1681565b600160009054906101000a900473ffffffffffffffffffffffffffffffffffffffff1673ffffffffffffffffffffffffffffffffffffffff163373ffffffffffffffffffffffffffffffffffffffff1614151561134957600080fd5b8060008190555050565b600080543481151561136157fe5b0614151561136e57600080fd5b611378333461198a565b565b60318160148110151561138957fe5b60209182820401919006915054906101000a900460ff1681565b60055481565b600080600090506000809050600090505b600560ff168160ff161015611418576000601b6000868460ff166005811015156113e057fe5b6020020151815260200190815260200160002060006101000a81548160ff021916908360ff16021790555080806001019150506113ba565b600090505b600560ff168160ff161015611509576001601b6000868460ff1660058110151561144357fe5b6020020151815260200190815260200160002060008282829054906101000a900460ff160192506101000a81548160ff021916908360ff1602179055508160ff16601b6000868460ff1660058110151561149957fe5b6020020151815260200190815260200160002060009054906101000a900460ff1660ff1611156114fc57601b6000858360ff166005811015156114d857fe5b6020020151815260200190815260200160002060009054906101000a900460ff1691505b808060010191505061141d565b8160ff1692505050919050565b600081565b60003073ffffffffffffffffffffffffffffffffffffffff1631905060006014905060008090505b601460ff168160ff1610156115ed5760318160ff1660148110151561156457fe5b602091828204019190069054906101000a900460ff1615156115ab57600060468190555080604760006101000a81548160ff021916908360ff160217905550505050611613565b82601d8260ff166014811015156115be57fe5b015410156115e057601d8160ff166014811015156115d857fe5b015492508091505b8080600101915050611543565b508160468190555080604760006101000a81548160ff021916908360ff16021790555050505b565b61161d611b3d565b601a6000838152602001908152602001600020600580602002604051908101604052809291908260058015611667576020028201915b815481526020019060010190808311611653575b50505050509050919050565b8073ffffffffffffffffffffffffffffffffffffffff163373ffffffffffffffffffffffffffffffffffffffff1614806116fa5750600160009054906101000a900473ffffffffffffffffffffffffffffffffffffffff1673ffffffffffffffffffffffffffffffffffffffff163373ffffffffffffffffffffffffffffffffffffffff16145b151561170557600080fd5b61170e81611751565b50565b601b6020528060005260406000206000915054906101000a900460ff1681565b60036020528060005260406000206000915054906101000a900460ff1681565b60008061175d836111e7565b91509150818015611792575060318160ff1660148110151561177b57fe5b602091828204019190069054906101000a900460ff165b1561184e576000601d8260ff166014811015156117ab57fe5b015490506000601d8360ff166014811015156117c357fe5b0181905550600060318360ff166014811015156117dc57fe5b602091828204019190066101000a81548160ff021916908315150217905550600081111561184c578373ffffffffffffffffffffffffffffffffffffffff166108fc829081150290604051600060405180830381858888f1935050505015801561184a573d6000803e3d6000fd5b505b505b61185661151b565b505050565b60003073ffffffffffffffffffffffffffffffffffffffff1631905060008090505b601460ff168110156119435760318160148110151561189857fe5b602091828204019190069054906101000a900460ff16156119365783156118f95781601d826014811015156118c957fe5b015484028115156118d657fe5b04601d826014811015156118e657fe5b0160008282540192505081905550611935565b81601d8260148110151561190957fe5b0154840281151561191657fe5b04601d8260148110151561192657fe5b01600082825403925050819055505b5b808060010191505061187d565b50505050565b600080611955846113a9565b9050600481141561196c57601b8302915050611984565b600581141561198257610cb48302915050611984565b505b92915050565b600080611996846111e7565b915091508115611a035782601d8260ff166014811015156119b357fe5b0160008282540192505081905550600160318260ff166014811015156119d557fe5b602091828204019190066101000a81548160ff0219169083151502179055506119fc61151b565b5050611afc565b6064601460465402811515611a1457fe5b0460465401831115611af95782601d604760009054906101000a900460ff1660ff16601481101515611a4257fe5b018190555060016031604760009054906101000a900460ff1660ff16601481101515611a6a57fe5b602091828204019190066101000a81548160ff021916908315150217905550836032604760009054906101000a900460ff1660ff16601481101515611aab57fe5b0160006101000a81548173ffffffffffffffffffffffffffffffffffffffff021916908373ffffffffffffffffffffffffffffffffffffffff160217905550611af261151b565b5050611afc565b50505b5050565b8260058101928215611b2c579182015b82811115611b2b578254825591600101919060010190611b10565b5b509050611b399190611b60565b5090565b60a060405190810160405280600590602082028038833980820191505090505090565b611b8291905b80821115611b7e576000816000905550600101611b66565b5090565b9056fea165627a7a72305820cab2ede018c682cc07f0b65ae5ea44d5d29c16a91e2c9c2d663d7b4f38519f800029",
  "source": "pragma solidity ^0.5.0;\n\ncontract SlotMachine {\n\n  // ******************************\n// DEFINE THE MACHINE\n\n  // MACHINE SPECIFIC CONSTANTS AND VARIABLES\n  uint8 constant numReel = 5;\n  uint constant public maxMultiplier = 3252;\n\n  // DEFINE THE PROBABILITIES FOR THE REEL SYMBOLS\n  function makeMachine() internal {\n    reels[0].probDenominator = 100;\n    reels[0].probs = [12, 11, 11, 11, 11, 11, 11, 11, 11];\n    reels[0].eventLabels = [0, 1, 2, 3, 4, 5, 6, 7, 8];\n    reels[1].probDenominator = 100;\n    reels[1].probs = [12, 11, 11, 11, 11, 11, 11, 11, 11];\n    reels[1].eventLabels = [0, 1, 2, 3, 4, 5, 6, 7, 8];\n    reels[2].probDenominator = 100;\n    reels[2].probs = [12, 11, 11, 11, 11, 11, 11, 11, 11];\n    reels[2].eventLabels = [0, 1, 2, 3, 4, 5, 6, 7, 8];\n    reels[3].probDenominator = 100;\n    reels[3].probs = [12, 11, 11, 11, 11, 11, 11, 11, 11];\n    reels[3].eventLabels = [0, 1, 2, 3, 4, 5, 6, 7, 8];\n    reels[4].probDenominator = 100;\n    reels[4].probs = [12, 11, 11, 11, 11, 11, 11, 11, 11];\n    reels[4].eventLabels = [0, 1, 2, 3, 4, 5, 6, 7, 8];\n}\n\n  // CALCULATE THE PAYOUT\n  function paytable(uint[numReel] memory outcome, uint betAmount) internal returns (uint) {\n    uint maxMatch = countMaxMatch(outcome);\n    if (maxMatch == 4) {\n      return betAmount * 27;\n    }\n    if (maxMatch == 5) {\n      return betAmount * 3252;\n    }\n}\n\n// END MACHINE DEFINITION\n// ******************************************\n\n  // STRUCTURES\n  struct Reel {\n    uint probDenominator;\n    uint[] probs;\n    uint[] eventLabels;\n  }\n\n  struct Bet {\n    address user;\n    uint amount;\n    uint block;\n  }\n\n  // PARAMETERS\n  uint8 constant public maxHouseMembers = 20; // max number of investors/owners\n  uint constant public minPercentageIncrease = 20; // min overage for kicking someone on funding\n  uint constant public blockDelay = 0; // 0 for debugging, 3 for production\n  uint public minDivisor = 1000000000;\n\n\n  // VARIABLES\n  address payable public owner;\n  mapping(uint => Bet) public bets;\n  mapping(uint => bool) public alreadyPlayed;\n  uint public counter = 0;\n  uint public nonceForRandom = 0;\n  Reel[numReel] public reels;\n  uint[numReel] thisOutcome;\n  mapping(uint => uint[numReel]) public outcomes;\n  mapping(uint => uint8) public symbolCounter;\n  uint public award;\n\n  uint[maxHouseMembers] public houseAccountsArray;\n  bool[maxHouseMembers] public houseActiveArray;\n  address payable [maxHouseMembers] public houseMemberArray;\n\n  uint public houseAccountMin = 0;\n  uint8 public houseAccountMinIndex = 0;\n\n  // DEFINE EVENTS\n  event BetPlaced(address user, uint amount, uint block, uint counter);\n  event Awarded(uint id, uint award);\n  event Spin(uint id, uint award);\n\n  constructor () public payable {\n    owner = msg.sender;\n    makeMachine();\n  }\n\n  // DETERMINE THE OUTCOME SYMBOL FOR EACH REEL\n  function sample(uint id) public {\n    uint thisRandom;\n    uint thisHash;\n    uint runningProbSum;\n    uint i;\n\n    for (i = 0; i < numReel; i++) {\n      thisHash = uint(keccak256(abi.encodePacked(block.number, msg.sender, i)));\n      thisRandom = thisHash % reels[i].probDenominator;\n      // CONVERT RANDOM NUMBER TO EVENT\n      runningProbSum = reels[i].probs[0] - 1;\n      for (uint j = 0; j < reels[i].probs.length; j++){\n        if (thisRandom <= runningProbSum) {\n          thisOutcome[i] = reels[i].eventLabels[j];\n          break;\n        }\n        else {\n          runningProbSum += reels[i].probs[j + 1];\n        }\n      }\n    }\n    outcomes[id] = thisOutcome;\n  }\n\n  // DISTRIBUTE BETS AND AWARDS ACCORDING TO PERCENTAGE OWNERSHIP\n  function distributeAmount(bool bet, uint amount) internal {\n    uint balanceHouse= address(this).balance;\n    for (uint i = 0; i < maxHouseMembers; i++) {\n      if (houseActiveArray[i]) {\n\n        // INCOMING BET\n        if (bet) {\n          houseAccountsArray[i] += (amount * houseAccountsArray[i])/balanceHouse;\n        }\n        // OUTGOING PAYOUT\n        else {\n          houseAccountsArray[i] -= (amount * houseAccountsArray[i])/balanceHouse;\n        }\n      }\n    }\n  }\n\n  // PLACE A WAGER\n  function wager () payable public {\n    require(msg.value % minDivisor == 0);\n    bets[counter] = Bet(msg.sender, msg.value, block.number + blockDelay);\n    distributeAmount(true, msg.value);\n    emit BetPlaced(msg.sender, msg.value, block.number + blockDelay, counter);\n    counter++;\n  }\n\n  // PLAY THE GAME\n  function play (uint id) public {\n      Bet storage bet = bets[id];\n      require(msg.sender == bet.user);\n      require(block.number >= bet.block);\n      require(block.number <= bet.block + 255);\n      require(!alreadyPlayed[id]);\n\n      sample(id);\n\n      alreadyPlayed[id] = true;\n      award = paytable(thisOutcome, bet.amount);\n      if (award > 0) {\n        if (award > address(this).balance) {\n          award = address(this).balance;\n        }\n        distributeAmount(false, award);\n        msg.sender.transfer(award);\n      }\n\n      emit Awarded(id, award);\n  }\n\n  function minHouseAccountGet() public {\n    uint currentMin = address(this).balance;\n    uint8 currentMinIndex = maxHouseMembers;\n\n    for (uint8 i = 0; i < maxHouseMembers; i++) {\n      if (!houseActiveArray[i]){\n        houseAccountMin = 0;\n        houseAccountMinIndex = i;\n        return;\n      }\n      if (houseAccountsArray[i] < currentMin){\n        currentMin = houseAccountsArray[i];\n        currentMinIndex = i;\n      }\n    }\n    houseAccountMin = currentMin;\n    houseAccountMinIndex = currentMinIndex;\n  }\n\n  // TRY TO ADD A NEW MEMBER (OWNER/INVESTOR)\n  function addMember(address payable addressToAdd, uint initialFund) private {\n\n    // CHECK IF ALREADY A MEMBER\n    (bool isAlreadyMember, uint8 index) = indexFromAddressGet(addressToAdd);\n\n    if (isAlreadyMember) {\n      houseAccountsArray[index] += initialFund;\n      houseActiveArray[index] = true;\n      minHouseAccountGet();\n      return;\n    }\n    else {\n      if (initialFund > houseAccountMin + ((houseAccountMin * minPercentageIncrease)/100)) {\n        houseAccountsArray[houseAccountMinIndex] = initialFund;\n        houseActiveArray[houseAccountMinIndex] = true;\n        houseMemberArray[houseAccountMinIndex] = addressToAdd;\n        minHouseAccountGet();\n        return;\n      }\n    }\n  }\n\n  // FUND THE CASINO\n  function fund () public payable {\n    require(msg.value % minDivisor == 0);\n    addMember(msg.sender, msg.value);\n  }\n\n  // REMOVE A MEMBER (OWNER/INVESTOR)\n  function houseRemoveMember(address payable houseMember) private {\n    (bool memberFlag, uint8 index) = indexFromAddressGet(houseMember);\n\n    if (memberFlag && houseActiveArray[index]) {\n      uint thisBalance = houseAccountsArray[index];\n      houseAccountsArray[index] = 0;\n      houseActiveArray[index] = false;\n\n      if (thisBalance > 0) {\n        houseMember.transfer(thisBalance);\n      }\n    }\n    minHouseAccountGet();\n  }\n\n  // WITHDRAW AND REMOVE MEMBER\n  function houseWithdraw (address payable houseMember) public {\n    require(msg.sender == houseMember || msg.sender == owner);\n    houseRemoveMember(houseMember);\n  }\n\n  // TRANSFER ALL FUNDS TO MEMBERS AND DESTROY THE CONTRACT\n  function kill () public {\n    require(msg.sender == owner);\n    for (uint i = 0; i < maxHouseMembers; i++) {\n      houseRemoveMember(houseMemberArray[i]);\n    }\n    selfdestruct(owner);\n  }\n\n  // UTILITY FUNCTIONS\n\n  // COUNT THE MAX NUMBER OF MATCHING SYMBOLS\n  function countMaxMatch(uint[numReel] memory outcomeResult) public returns (uint) {\n    uint8 max = 0;\n    uint8 i = 0;\n\n    for (i = 0; i < numReel; i++) {\n        symbolCounter[outcomeResult[i]] = 0;\n    }\n\n    for (i = 0; i < numReel; i++) {\n      symbolCounter[outcomeResult[i]] += 1;\n      if (symbolCounter[outcomeResult[i]] > max) {\n        max = symbolCounter[outcomeResult[i]];\n      }\n    }\n    return max;\n  }\n\n  // GET THE INDEX OF A HOUSE MEMBER FROM THE ADDRESS IF IT EXISTS\n  function indexFromAddressGet(address payable possibleMemberAddress) public view returns (bool, uint8) {\n    for (uint8 i = 0; i < maxHouseMembers; i++) {\n      if (houseMemberArray[i] == possibleMemberAddress) {\n        return (true, i);\n      }\n    }\n    return (false, 0);\n  }\n\n  //  ALLOW OWNER TO SET AMOUNT WHICH MUST EVENLY DIVIDE ALL FUNDS\n  function setminDivisor(uint amount) public {\n    require(msg.sender == owner);\n    minDivisor = amount;\n  }\n\n  // GETTERS FOR DEBUGGING\n  function outcomeGet(uint id) public view returns (uint[numReel] memory) {\n    return outcomes[id];\n  }\n\n  function getBalance () view public returns (uint) {\n    return address(this).balance;\n  }\n\n  function minInvestment () view public returns (uint) {\n    return houseAccountMin + ((houseAccountMin * minPercentageIncrease)/100);\n  }\n\n  function houseAccountGet (address payable thisAddress) view public returns (uint) {\n    (bool memberFlag, uint index) = indexFromAddressGet(thisAddress);\n    if (memberFlag) {\n      return houseAccountsArray[index];\n    }\n    else {\n      return 0;\n    }\n  }\n}\n",
  "sourcePath": "/Users/mettinger/github/casino/casino-ethereum/contracts/slotMachine.sol",
  "compiler": {
    "name": "solc",
    "version": "0.5.0+commit.1d4f565a.Emscripten.clang"
  },
  "schemaVersion": "3.0.1",
  "updatedAt": "2019-02-20T17:25:44.480Z",
  "devdoc": {
    "methods": {}
  },
  "userdoc": {
    "methods": {}
  }
}