{
  "contractName": "SlotMachine",
  "abi": [
    {
      "constant": true,
      "inputs": [
        {
          "name": "",
          "type": "uint256"
        }
      ],
      "name": "bets",
      "outputs": [
        {
          "name": "user",
          "type": "address"
        },
        {
          "name": "amount",
          "type": "uint256"
        },
        {
          "name": "block",
          "type": "uint256"
        }
      ],
      "payable": false,
      "stateMutability": "view",
      "type": "function",
      "signature": "0x22af00fa"
    },
    {
      "constant": true,
      "inputs": [
        {
          "name": "",
          "type": "uint256"
        }
      ],
      "name": "reels",
      "outputs": [
        {
          "name": "probDenominator",
          "type": "uint256"
        }
      ],
      "payable": false,
      "stateMutability": "view",
      "type": "function",
      "signature": "0x2422eb9c"
    },
    {
      "constant": true,
      "inputs": [],
      "name": "maxHouseMembers",
      "outputs": [
        {
          "name": "",
          "type": "uint256"
        }
      ],
      "payable": false,
      "stateMutability": "view",
      "type": "function",
      "signature": "0x2ac485aa"
    },
    {
      "constant": true,
      "inputs": [],
      "name": "minBetDivisor",
      "outputs": [
        {
          "name": "",
          "type": "uint256"
        }
      ],
      "payable": false,
      "stateMutability": "view",
      "type": "function",
      "signature": "0x3a208000"
    },
    {
      "constant": true,
      "inputs": [],
      "name": "award",
      "outputs": [
        {
          "name": "",
          "type": "uint256"
        }
      ],
      "payable": false,
      "stateMutability": "view",
      "type": "function",
      "signature": "0x41a494c5"
    },
    {
      "constant": true,
      "inputs": [],
      "name": "counter",
      "outputs": [
        {
          "name": "",
          "type": "uint256"
        }
      ],
      "payable": false,
      "stateMutability": "view",
      "type": "function",
      "signature": "0x61bc221a"
    },
    {
      "constant": true,
      "inputs": [],
      "name": "minPercentageIncrease",
      "outputs": [
        {
          "name": "",
          "type": "uint256"
        }
      ],
      "payable": false,
      "stateMutability": "view",
      "type": "function",
      "signature": "0x72638b9c"
    },
    {
      "constant": true,
      "inputs": [
        {
          "name": "",
          "type": "address"
        }
      ],
      "name": "houseAccounts",
      "outputs": [
        {
          "name": "",
          "type": "uint256"
        }
      ],
      "payable": false,
      "stateMutability": "view",
      "type": "function",
      "signature": "0x7bef46f5"
    },
    {
      "constant": true,
      "inputs": [
        {
          "name": "",
          "type": "address"
        }
      ],
      "name": "housePercentages",
      "outputs": [
        {
          "name": "numerator",
          "type": "uint256"
        },
        {
          "name": "denominator",
          "type": "uint256"
        }
      ],
      "payable": false,
      "stateMutability": "view",
      "type": "function",
      "signature": "0x8c7fbb63"
    },
    {
      "constant": true,
      "inputs": [],
      "name": "owner",
      "outputs": [
        {
          "name": "",
          "type": "address"
        }
      ],
      "payable": false,
      "stateMutability": "view",
      "type": "function",
      "signature": "0x8da5cb5b"
    },
    {
      "constant": true,
      "inputs": [
        {
          "name": "",
          "type": "uint256"
        },
        {
          "name": "",
          "type": "uint256"
        }
      ],
      "name": "outcomes",
      "outputs": [
        {
          "name": "",
          "type": "uint256"
        }
      ],
      "payable": false,
      "stateMutability": "view",
      "type": "function",
      "signature": "0x962254a4"
    },
    {
      "constant": true,
      "inputs": [
        {
          "name": "",
          "type": "uint256"
        }
      ],
      "name": "houseMemberArray",
      "outputs": [
        {
          "name": "",
          "type": "address"
        }
      ],
      "payable": false,
      "stateMutability": "view",
      "type": "function",
      "signature": "0x9e30f05d"
    },
    {
      "constant": true,
      "inputs": [],
      "name": "nonceForRandom",
      "outputs": [
        {
          "name": "",
          "type": "uint256"
        }
      ],
      "payable": false,
      "stateMutability": "view",
      "type": "function",
      "signature": "0xc947f061"
    },
    {
      "constant": true,
      "inputs": [],
      "name": "blockDelay",
      "outputs": [
        {
          "name": "",
          "type": "uint256"
        }
      ],
      "payable": false,
      "stateMutability": "view",
      "type": "function",
      "signature": "0xd98f6088"
    },
    {
      "constant": true,
      "inputs": [],
      "name": "minFundDivisor",
      "outputs": [
        {
          "name": "",
          "type": "uint256"
        }
      ],
      "payable": false,
      "stateMutability": "view",
      "type": "function",
      "signature": "0xe427d026"
    },
    {
      "constant": true,
      "inputs": [
        {
          "name": "",
          "type": "uint256"
        }
      ],
      "name": "symbolCounter",
      "outputs": [
        {
          "name": "",
          "type": "uint8"
        }
      ],
      "payable": false,
      "stateMutability": "view",
      "type": "function",
      "signature": "0xf729c2f4"
    },
    {
      "constant": true,
      "inputs": [
        {
          "name": "",
          "type": "uint256"
        }
      ],
      "name": "alreadyPlayed",
      "outputs": [
        {
          "name": "",
          "type": "bool"
        }
      ],
      "payable": false,
      "stateMutability": "view",
      "type": "function",
      "signature": "0xf977f85e"
    },
    {
      "constant": true,
      "inputs": [],
      "name": "maxBetAsBalancePercentage",
      "outputs": [
        {
          "name": "",
          "type": "uint256"
        }
      ],
      "payable": false,
      "stateMutability": "view",
      "type": "function",
      "signature": "0xfa60c0bc"
    },
    {
      "inputs": [],
      "payable": true,
      "stateMutability": "payable",
      "type": "constructor",
      "signature": "constructor"
    },
    {
      "anonymous": false,
      "inputs": [
        {
          "indexed": false,
          "name": "user",
          "type": "address"
        },
        {
          "indexed": false,
          "name": "amount",
          "type": "uint256"
        },
        {
          "indexed": false,
          "name": "block",
          "type": "uint256"
        },
        {
          "indexed": false,
          "name": "counter",
          "type": "uint256"
        }
      ],
      "name": "BetPlaced",
      "type": "event",
      "signature": "0x7363e6581df4db69463222156be4a09656528b9f1302890fa4c0b60819b69fc6"
    },
    {
      "anonymous": false,
      "inputs": [
        {
          "indexed": false,
          "name": "id",
          "type": "uint256"
        },
        {
          "indexed": false,
          "name": "award",
          "type": "uint256"
        }
      ],
      "name": "Awarded",
      "type": "event",
      "signature": "0xde375d5f6628b29fc599d7672d0d7475a6b065940041879fa73f4e1db7d3ac20"
    },
    {
      "anonymous": false,
      "inputs": [
        {
          "indexed": false,
          "name": "id",
          "type": "uint256"
        },
        {
          "indexed": false,
          "name": "award",
          "type": "uint256"
        }
      ],
      "name": "Spin",
      "type": "event",
      "signature": "0x70907b7a890a9bb1241130b7270a867d408a17aad45906e17b3845a0ab01d621"
    },
    {
      "constant": false,
      "inputs": [
        {
          "name": "id",
          "type": "uint256"
        }
      ],
      "name": "sample",
      "outputs": [],
      "payable": false,
      "stateMutability": "nonpayable",
      "type": "function",
      "signature": "0x10fa1878"
    },
    {
      "constant": false,
      "inputs": [],
      "name": "wager",
      "outputs": [],
      "payable": true,
      "stateMutability": "payable",
      "type": "function",
      "signature": "0x667d5d22"
    },
    {
      "constant": false,
      "inputs": [
        {
          "name": "id",
          "type": "uint256"
        }
      ],
      "name": "play",
      "outputs": [],
      "payable": false,
      "stateMutability": "nonpayable",
      "type": "function",
      "signature": "0x6898f82b"
    },
    {
      "constant": true,
      "inputs": [
        {
          "name": "a",
          "type": "uint256"
        },
        {
          "name": "b",
          "type": "uint256"
        }
      ],
      "name": "gcdCalculate",
      "outputs": [
        {
          "name": "",
          "type": "uint256"
        }
      ],
      "payable": false,
      "stateMutability": "pure",
      "type": "function",
      "signature": "0xd7c6fc27"
    },
    {
      "constant": false,
      "inputs": [
        {
          "name": "outcomeResult",
          "type": "uint256[5]"
        }
      ],
      "name": "countMaxMatch",
      "outputs": [
        {
          "name": "",
          "type": "uint256"
        }
      ],
      "payable": false,
      "stateMutability": "nonpayable",
      "type": "function",
      "signature": "0xd8fc0e9a"
    },
    {
      "constant": false,
      "inputs": [],
      "name": "calculateHousePercentages",
      "outputs": [],
      "payable": false,
      "stateMutability": "nonpayable",
      "type": "function",
      "signature": "0x988a2312"
    },
    {
      "constant": false,
      "inputs": [
        {
          "name": "amount",
          "type": "uint256"
        }
      ],
      "name": "setMinFundDivisor",
      "outputs": [],
      "payable": false,
      "stateMutability": "nonpayable",
      "type": "function",
      "signature": "0x65ac7fa6"
    },
    {
      "constant": true,
      "inputs": [
        {
          "name": "amount",
          "type": "uint256"
        }
      ],
      "name": "multipleOf",
      "outputs": [
        {
          "name": "",
          "type": "bool"
        }
      ],
      "payable": false,
      "stateMutability": "view",
      "type": "function",
      "signature": "0xe566f2b2"
    },
    {
      "constant": false,
      "inputs": [],
      "name": "fund",
      "outputs": [],
      "payable": true,
      "stateMutability": "payable",
      "type": "function",
      "signature": "0xb60d4288"
    },
    {
      "constant": false,
      "inputs": [
        {
          "name": "houseMember",
          "type": "address"
        }
      ],
      "name": "houseWithdraw",
      "outputs": [],
      "payable": false,
      "stateMutability": "nonpayable",
      "type": "function",
      "signature": "0xe9d3ea6b"
    },
    {
      "constant": false,
      "inputs": [],
      "name": "kill",
      "outputs": [],
      "payable": false,
      "stateMutability": "nonpayable",
      "type": "function",
      "signature": "0x41c0e1b5"
    },
    {
      "constant": true,
      "inputs": [
        {
          "name": "id",
          "type": "uint256"
        }
      ],
      "name": "outcomeGet",
      "outputs": [
        {
          "name": "",
          "type": "uint256[5]"
        }
      ],
      "payable": false,
      "stateMutability": "view",
      "type": "function",
      "signature": "0xe64d567b"
    },
    {
      "constant": true,
      "inputs": [],
      "name": "getBalance",
      "outputs": [
        {
          "name": "",
          "type": "uint256"
        }
      ],
      "payable": false,
      "stateMutability": "view",
      "type": "function",
      "signature": "0x12065fe0"
    }
  ],
  "bytecode": "0x6080604052633b9aca006000556000546001556000601b556000601c5533600260006101000a81548173ffffffffffffffffffffffffffffffffffffffff021916908373ffffffffffffffffffffffffffffffffffffffff160217905550620000766200007c640100000000026401000000009004565b6200071f565b6064601d60006005811015156200008f57fe5b600302016000018190555061012060405190810160405280600c60ff168152602001600b60ff168152602001600b60ff168152602001600b60ff168152602001600b60ff168152602001600b60ff168152602001600b60ff168152602001600b60ff168152602001600b60ff16815250601d60006005811015156200011057fe5b6003020160010190600962000127929190620006a0565b5061012060405190810160405280600060ff168152602001600160ff168152602001600260ff168152602001600360ff168152602001600460ff168152602001600560ff168152602001600660ff168152602001600760ff168152602001600860ff16815250601d60006005811015156200019e57fe5b60030201600201906009620001b5929190620006a0565b506064601d6001600581101515620001c957fe5b600302016000018190555061012060405190810160405280600c60ff168152602001600b60ff168152602001600b60ff168152602001600b60ff168152602001600b60ff168152602001600b60ff168152602001600b60ff168152602001600b60ff168152602001600b60ff16815250601d60016005811015156200024a57fe5b6003020160010190600962000261929190620006a0565b5061012060405190810160405280600060ff168152602001600160ff168152602001600260ff168152602001600360ff168152602001600460ff168152602001600560ff168152602001600660ff168152602001600760ff168152602001600860ff16815250601d6001600581101515620002d857fe5b60030201600201906009620002ef929190620006a0565b506064601d60026005811015156200030357fe5b600302016000018190555061012060405190810160405280600c60ff168152602001600b60ff168152602001600b60ff168152602001600b60ff168152602001600b60ff168152602001600b60ff168152602001600b60ff168152602001600b60ff168152602001600b60ff16815250601d60026005811015156200038457fe5b600302016001019060096200039b929190620006a0565b5061012060405190810160405280600060ff168152602001600160ff168152602001600260ff168152602001600360ff168152602001600460ff168152602001600560ff168152602001600660ff168152602001600760ff168152602001600860ff16815250601d60026005811015156200041257fe5b6003020160020190600962000429929190620006a0565b506064601d60036005811015156200043d57fe5b600302016000018190555061012060405190810160405280600c60ff168152602001600b60ff168152602001600b60ff168152602001600b60ff168152602001600b60ff168152602001600b60ff168152602001600b60ff168152602001600b60ff168152602001600b60ff16815250601d6003600581101515620004be57fe5b60030201600101906009620004d5929190620006a0565b5061012060405190810160405280600060ff168152602001600160ff168152602001600260ff168152602001600360ff168152602001600460ff168152602001600560ff168152602001600660ff168152602001600760ff168152602001600860ff16815250601d60036005811015156200054c57fe5b6003020160020190600962000563929190620006a0565b506064601d60046005811015156200057757fe5b600302016000018190555061012060405190810160405280600c60ff168152602001600b60ff168152602001600b60ff168152602001600b60ff168152602001600b60ff168152602001600b60ff168152602001600b60ff168152602001600b60ff168152602001600b60ff16815250601d6004600581101515620005f857fe5b600302016001019060096200060f929190620006a0565b5061012060405190810160405280600060ff168152602001600160ff168152602001600260ff168152602001600360ff168152602001600460ff168152602001600560ff168152602001600660ff168152602001600760ff168152602001600860ff16815250601d60046005811015156200068657fe5b600302016002019060096200069d929190620006a0565b50565b828054828255906000526020600020908101928215620006e4579160200282015b82811115620006e3578251829060ff16905591602001919060010190620006c1565b5b509050620006f39190620006f7565b5090565b6200071c91905b8082111562000718576000816000905550600101620006fe565b5090565b90565b61213c806200072f6000396000f3fe60806040526004361061018b576000357c0100000000000000000000000000000000000000000000000000000000900463ffffffff16806310fa18781461019057806312065fe0146101cb57806322af00fa146101f65780632422eb9c1461027f5780632ac485aa146102ce5780633a208000146102f957806341a494c51461032457806341c0e1b51461034f57806361bc221a1461036657806365ac7fa614610391578063667d5d22146103cc5780636898f82b146103d657806372638b9c146104115780637bef46f51461043c5780638c7fbb63146104a15780638da5cb5b1461050d578063962254a414610564578063988a2312146105bd5780639e30f05d146105d4578063b60d42881461064f578063c947f06114610659578063d7c6fc2714610684578063d8fc0e9a146106dd578063d98f608814610763578063e427d0261461078e578063e566f2b2146107b9578063e64d567b1461080c578063e9d3ea6b14610883578063f729c2f4146108d4578063f977f85e14610929578063fa60c0bc1461097c575b600080fd5b34801561019c57600080fd5b506101c9600480360360208110156101b357600080fd5b81019080803590602001909291905050506109a7565b005b3480156101d757600080fd5b506101e0610b80565b6040518082815260200191505060405180910390f35b34801561020257600080fd5b5061022f6004803603602081101561021957600080fd5b8101908080359060200190929190505050610b9f565b604051808473ffffffffffffffffffffffffffffffffffffffff1673ffffffffffffffffffffffffffffffffffffffff168152602001838152602001828152602001935050505060405180910390f35b34801561028b57600080fd5b506102b8600480360360208110156102a257600080fd5b8101908080359060200190929190505050610be9565b6040518082815260200191505060405180910390f35b3480156102da57600080fd5b506102e3610c0c565b6040518082815260200191505060405180910390f35b34801561030557600080fd5b5061030e610c11565b6040518082815260200191505060405180910390f35b34801561033057600080fd5b50610339610c17565b6040518082815260200191505060405180910390f35b34801561035b57600080fd5b50610364610c1d565b005b34801561037257600080fd5b5061037b610d0a565b6040518082815260200191505060405180910390f35b34801561039d57600080fd5b506103ca600480360360208110156103b457600080fd5b8101908080359060200190929190505050610d10565b005b6103d4610d76565b005b3480156103e257600080fd5b5061040f600480360360208110156103f957600080fd5b8101908080359060200190929190505050610f0d565b005b34801561041d57600080fd5b50610426611142565b6040518082815260200191505060405180910390f35b34801561044857600080fd5b5061048b6004803603602081101561045f57600080fd5b81019080803573ffffffffffffffffffffffffffffffffffffffff169060200190929190505050611147565b6040518082815260200191505060405180910390f35b3480156104ad57600080fd5b506104f0600480360360208110156104c457600080fd5b81019080803573ffffffffffffffffffffffffffffffffffffffff16906020019092919050505061115f565b604051808381526020018281526020019250505060405180910390f35b34801561051957600080fd5b50610522611183565b604051808273ffffffffffffffffffffffffffffffffffffffff1673ffffffffffffffffffffffffffffffffffffffff16815260200191505060405180910390f35b34801561057057600080fd5b506105a76004803603604081101561058757600080fd5b8101908080359060200190929190803590602001909291905050506111a9565b6040518082815260200191505060405180910390f35b3480156105c957600080fd5b506105d26111d0565b005b3480156105e057600080fd5b5061060d600480360360208110156105f757600080fd5b81019080803590602001909291905050506114ff565b604051808273ffffffffffffffffffffffffffffffffffffffff1673ffffffffffffffffffffffffffffffffffffffff16815260200191505060405180910390f35b610657611534565b005b34801561066557600080fd5b5061066e61155c565b6040518082815260200191505060405180910390f35b34801561069057600080fd5b506106c7600480360360408110156106a757600080fd5b810190808035906020019092919080359060200190929190505050611562565b6040518082815260200191505060405180910390f35b3480156106e957600080fd5b5061074d600480360360a081101561070057600080fd5b810190808060a001906005806020026040519081016040528092919082600560200280828437600081840152601f19601f8201169050808301925050505050509192919290505050611593565b6040518082815260200191505060405180910390f35b34801561076f57600080fd5b50610778611700565b6040518082815260200191505060405180910390f35b34801561079a57600080fd5b506107a3611705565b6040518082815260200191505060405180910390f35b3480156107c557600080fd5b506107f2600480360360208110156107dc57600080fd5b810190808035906020019092919050505061170b565b604051808215151515815260200191505060405180910390f35b34801561081857600080fd5b506108456004803603602081101561082f57600080fd5b8101908080359060200190929190505050611724565b6040518082600560200280838360005b83811015610870578082015181840152602081019050610855565b5050505090500191505060405180910390f35b34801561088f57600080fd5b506108d2600480360360208110156108a657600080fd5b81019080803573ffffffffffffffffffffffffffffffffffffffff169060200190929190505050611782565b005b3480156108e057600080fd5b5061090d600480360360208110156108f757600080fd5b8101908080359060200190929190505050611828565b604051808260ff1660ff16815260200191505060405180910390f35b34801561093557600080fd5b506109626004803603602081101561094c57600080fd5b8101908080359060200190929190505050611848565b604051808215151515815260200191505060405180910390f35b34801561098857600080fd5b50610991611868565b6040518082815260200191505060405180910390f35b600080600080600090505b600560ff16811015610b5557433382604051602001808481526020018373ffffffffffffffffffffffffffffffffffffffff1673ffffffffffffffffffffffffffffffffffffffff166c01000000000000000000000000028152601401828152602001935050505060405160208183030381529060405280519060200120600190049250601d81600581101515610a4557fe5b600302016000015483811515610a5757fe5b0693506001601d82600581101515610a6b57fe5b600302016001016000815481101515610a8057fe5b906000526020600020015403915060008090505b601d82600581101515610aa357fe5b6003020160010180549050811015610b47578285111515610b0557601d82600581101515610acd57fe5b6003020160020181815481101515610ae157fe5b9060005260206000200154602c83600581101515610afb57fe5b0181905550610b47565b601d82600581101515610b1457fe5b6003020160010160018201815481101515610b2b57fe5b9060005260206000200154830192508080600101915050610a94565b5080806001019150506109b2565b602c60316000878152602001908152602001600020906005610b7892919061208b565b505050505050565b60003073ffffffffffffffffffffffffffffffffffffffff1631905090565b60036020528060005260406000206000915090508060000160009054906101000a900473ffffffffffffffffffffffffffffffffffffffff16908060010154908060020154905083565b601d81600581101515610bf857fe5b600302016000915090508060000154905081565b601481565b60015481565b60335481565b600260009054906101000a900473ffffffffffffffffffffffffffffffffffffffff1673ffffffffffffffffffffffffffffffffffffffff163373ffffffffffffffffffffffffffffffffffffffff16141515610c7957600080fd5b60008090505b6014811015610cce57610cc1600782601481101515610c9a57fe5b0160009054906101000a900473ffffffffffffffffffffffffffffffffffffffff1661186d565b8080600101915050610c7f565b50600260009054906101000a900473ffffffffffffffffffffffffffffffffffffffff1673ffffffffffffffffffffffffffffffffffffffff16ff5b601b5481565b600260009054906101000a900473ffffffffffffffffffffffffffffffffffffffff1673ffffffffffffffffffffffffffffffffffffffff163373ffffffffffffffffffffffffffffffffffffffff16141515610d6c57600080fd5b8060008190555050565b600060015434811515610d8557fe5b06141515610d9257600080fd5b6064600a3073ffffffffffffffffffffffffffffffffffffffff163102811515610db857fe5b043411151515610dc757600080fd5b6060604051908101604052803373ffffffffffffffffffffffffffffffffffffffff1681526020013481526020016000430181525060036000601b54815260200190815260200160002060008201518160000160006101000a81548173ffffffffffffffffffffffffffffffffffffffff021916908373ffffffffffffffffffffffffffffffffffffffff1602179055506020820151816001015560408201518160020155905050610e796001611984565b7f7363e6581df4db69463222156be4a09656528b9f1302890fa4c0b60819b69fc6333460034301601b54604051808573ffffffffffffffffffffffffffffffffffffffff1673ffffffffffffffffffffffffffffffffffffffff16815260200184815260200183815260200182815260200194505050505060405180910390a1601b60008154809291906001019190505550565b60006003600083815260200190815260200160002090508060000160009054906101000a900473ffffffffffffffffffffffffffffffffffffffff1673ffffffffffffffffffffffffffffffffffffffff163373ffffffffffffffffffffffffffffffffffffffff16141515610f8257600080fd5b80600201544310151515610f9557600080fd5b60ff8160020154014311151515610fab57600080fd5b6004600083815260200190815260200160002060009054906101000a900460ff16151515610fd857600080fd5b610fe1826109a7565b60016004600084815260200190815260200160002060006101000a81548160ff021916908315150217905550611058602c600580602002604051908101604052809291908260058015611049576020028201915b815481526020019060010190808311611035575b50505050508260010154611bb3565b603381905550600060335411156110fd573073ffffffffffffffffffffffffffffffffffffffff163160335411156110a9573073ffffffffffffffffffffffffffffffffffffffff16316033819055505b6110b36000611984565b3373ffffffffffffffffffffffffffffffffffffffff166108fc6033549081150290604051600060405180830381858888f193505050501580156110fb573d6000803e3d6000fd5b505b7fde375d5f6628b29fc599d7672d0d7475a6b065940041879fa73f4e1db7d3ac2082603354604051808381526020018281526020019250505060405180910390a15050565b601481565b60066020528060005260406000206000915090505481565b60056020528060005260406000206000915090508060000154908060010154905082565b600260009054906101000a900473ffffffffffffffffffffffffffffffffffffffff1681565b6031602052816000526040600020816005811015156111c457fe5b01600091509150505481565b600080600090505b60148110156114fb576000600660006007846014811015156111f657fe5b0160009054906101000a900473ffffffffffffffffffffffffffffffffffffffff1673ffffffffffffffffffffffffffffffffffffffff1673ffffffffffffffffffffffffffffffffffffffff1681526020019081526020016000205414156112d25760006005600060078460148110151561126e57fe5b0160009054906101000a900473ffffffffffffffffffffffffffffffffffffffff1673ffffffffffffffffffffffffffffffffffffffff1673ffffffffffffffffffffffffffffffffffffffff168152602001908152602001600020600001819055505b611362600660006007846014811015156112e857fe5b0160009054906101000a900473ffffffffffffffffffffffffffffffffffffffff1673ffffffffffffffffffffffffffffffffffffffff1673ffffffffffffffffffffffffffffffffffffffff168152602001908152602001600020543073ffffffffffffffffffffffffffffffffffffffff1631611562565b9150816006600060078460148110151561137857fe5b0160009054906101000a900473ffffffffffffffffffffffffffffffffffffffff1673ffffffffffffffffffffffffffffffffffffffff1673ffffffffffffffffffffffffffffffffffffffff168152602001908152602001600020548115156113de57fe5b04600560006007846014811015156113f257fe5b0160009054906101000a900473ffffffffffffffffffffffffffffffffffffffff1673ffffffffffffffffffffffffffffffffffffffff1673ffffffffffffffffffffffffffffffffffffffff16815260200190815260200160002060000181905550813073ffffffffffffffffffffffffffffffffffffffff163181151561147757fe5b046005600060078460148110151561148b57fe5b0160009054906101000a900473ffffffffffffffffffffffffffffffffffffffff1673ffffffffffffffffffffffffffffffffffffffff1673ffffffffffffffffffffffffffffffffffffffff1681526020019081526020016000206001018190555080806001019150506111d8565b5050565b60078160148110151561150e57fe5b016000915054906101000a900473ffffffffffffffffffffffffffffffffffffffff1681565b61153d3461170b565b151561154857600080fd5b6115523334611bf4565b61155a6111d0565b565b601c5481565b6000805b60008314151561158957829050828481151561157e57fe5b069250809350611566565b8391505092915050565b600080600090506000809050600090505b600560ff168160ff16101561160257600060326000868460ff166005811015156115ca57fe5b6020020151815260200190815260200160002060006101000a81548160ff021916908360ff16021790555080806001019150506115a4565b600090505b600560ff168160ff1610156116f357600160326000868460ff1660058110151561162d57fe5b6020020151815260200190815260200160002060008282829054906101000a900460ff160192506101000a81548160ff021916908360ff1602179055508160ff1660326000868460ff1660058110151561168357fe5b6020020151815260200190815260200160002060009054906101000a900460ff1660ff1611156116e65760326000858360ff166005811015156116c257fe5b6020020151815260200190815260200160002060009054906101000a900460ff1691505b8080600101915050611607565b8160ff1692505050919050565b600081565b60005481565b6000806000548381151561171b57fe5b06149050919050565b61172c6120c8565b60316000838152602001908152602001600020600580602002604051908101604052809291908260058015611776576020028201915b815481526020019060010190808311611762575b50505050509050919050565b8073ffffffffffffffffffffffffffffffffffffffff163373ffffffffffffffffffffffffffffffffffffffff1614806118095750600260009054906101000a900473ffffffffffffffffffffffffffffffffffffffff1673ffffffffffffffffffffffffffffffffffffffff163373ffffffffffffffffffffffffffffffffffffffff16145b151561181457600080fd5b61181d8161186d565b6118256111d0565b50565b60326020528060005260406000206000915054906101000a900460ff1681565b60046020528060005260406000206000915054906101000a900460ff1681565b600a81565b6000600660008373ffffffffffffffffffffffffffffffffffffffff1673ffffffffffffffffffffffffffffffffffffffff168152602001908152602001600020541115611981578073ffffffffffffffffffffffffffffffffffffffff166108fc600660008473ffffffffffffffffffffffffffffffffffffffff1673ffffffffffffffffffffffffffffffffffffffff168152602001908152602001600020549081150290604051600060405180830381858888f1935050505015801561193a573d6000803e3d6000fd5b506000600660008373ffffffffffffffffffffffffffffffffffffffff1673ffffffffffffffffffffffffffffffffffffffff168152602001908152602001600020819055505b50565b60008060008090505b6014811015611bad57600560006007836014811015156119a957fe5b0160009054906101000a900473ffffffffffffffffffffffffffffffffffffffff1673ffffffffffffffffffffffffffffffffffffffff1673ffffffffffffffffffffffffffffffffffffffff16815260200190815260200160002060000154925060056000600783601481101515611a1e57fe5b0160009054906101000a900473ffffffffffffffffffffffffffffffffffffffff1673ffffffffffffffffffffffffffffffffffffffff1673ffffffffffffffffffffffffffffffffffffffff1681526020019081526020016000206001015491508315611b155781833402811515611a9357fe5b0460066000600784601481101515611aa757fe5b0160009054906101000a900473ffffffffffffffffffffffffffffffffffffffff1673ffffffffffffffffffffffffffffffffffffffff1673ffffffffffffffffffffffffffffffffffffffff16815260200190815260200160002060008282540192505081905550611ba0565b81833402811515611b2257fe5b0460066000600784601481101515611b3657fe5b0160009054906101000a900473ffffffffffffffffffffffffffffffffffffffff1673ffffffffffffffffffffffffffffffffffffffff1673ffffffffffffffffffffffffffffffffffffffff168152602001908152602001600020600082825403925050819055505b808060010191505061198d565b50505050565b600080611bbf84611593565b90506004811415611bd657601b8302915050611bee565b6005811415611bec57610cb48302915050611bee565b505b92915050565b60006006600060076000601481101515611c0a57fe5b0160009054906101000a900473ffffffffffffffffffffffffffffffffffffffff1673ffffffffffffffffffffffffffffffffffffffff1673ffffffffffffffffffffffffffffffffffffffff1681526020019081526020016000205490506000809050600080600090505b6014811015611d5157600781601481101515611c8e57fe5b0160009054906101000a900473ffffffffffffffffffffffffffffffffffffffff1691508573ffffffffffffffffffffffffffffffffffffffff168273ffffffffffffffffffffffffffffffffffffffff161415611d445784600660008873ffffffffffffffffffffffffffffffffffffffff1673ffffffffffffffffffffffffffffffffffffffff16815260200190815260200160002060008282540192505081905550611d3b6111d0565b50505050612087565b8080600101915050611c76565b5060008090505b6014811015611f7a57600781601481101515611d7057fe5b0160009054906101000a900473ffffffffffffffffffffffffffffffffffffffff1691506000600660008473ffffffffffffffffffffffffffffffffffffffff1673ffffffffffffffffffffffffffffffffffffffff168152602001908152602001600020541415611e805785600782601481101515611dec57fe5b0160006101000a81548173ffffffffffffffffffffffffffffffffffffffff021916908373ffffffffffffffffffffffffffffffffffffffff16021790555084600660008873ffffffffffffffffffffffffffffffffffffffff1673ffffffffffffffffffffffffffffffffffffffff16815260200190815260200160002081905550611e776111d0565b50505050612087565b8360066000600784601481101515611e9457fe5b0160009054906101000a900473ffffffffffffffffffffffffffffffffffffffff1673ffffffffffffffffffffffffffffffffffffffff1673ffffffffffffffffffffffffffffffffffffffff168152602001908152602001600020541015611f6d5760066000600783601481101515611f0a57fe5b0160009054906101000a900473ffffffffffffffffffffffffffffffffffffffff1673ffffffffffffffffffffffffffffffffffffffff1673ffffffffffffffffffffffffffffffffffffffff1681526020019081526020016000205493508092505b8080600101915050611d58565b50606460148402811515611f8a57fe5b04830184111561207357600782601481101515611fa357fe5b0160009054906101000a900473ffffffffffffffffffffffffffffffffffffffff169050611fd08161186d565b84600783601481101515611fe057fe5b0160006101000a81548173ffffffffffffffffffffffffffffffffffffffff021916908373ffffffffffffffffffffffffffffffffffffffff16021790555083600660008373ffffffffffffffffffffffffffffffffffffffff1673ffffffffffffffffffffffffffffffffffffffff1681526020019081526020016000208190555061206b6111d0565b505050612087565b6001600014151561208357600080fd5b5050505b5050565b82600581019282156120b7579182015b828111156120b657825482559160010191906001019061209b565b5b5090506120c491906120eb565b5090565b60a060405190810160405280600590602082028038833980820191505090505090565b61210d91905b808211156121095760008160009055506001016120f1565b5090565b9056fea165627a7a723058203371effaa1ea5f03c8b24b4d46b1ddc8ca9c34f54307462fbacd1b52d4e4996f0029",
  "source": "pragma solidity ^0.5.0;\n\ncontract SlotMachine {\n\n  // ******************************\n// DEFINE THE MACHINE\n\n  // MACHINE SPECIFIC CONSTANTS AND VARIABLES\n  uint8 constant numReel = 5;\n\n  // DEFINE THE PROBABILITIES FOR THE REEL SYMBOLS\n  function makeMachine() internal {\n    reels[0].probDenominator = 100;\n    reels[0].probs = [12, 11, 11, 11, 11, 11, 11, 11, 11];\n    reels[0].eventLabels = [0, 1, 2, 3, 4, 5, 6, 7, 8];\n    reels[1].probDenominator = 100;\n    reels[1].probs = [12, 11, 11, 11, 11, 11, 11, 11, 11];\n    reels[1].eventLabels = [0, 1, 2, 3, 4, 5, 6, 7, 8];\n    reels[2].probDenominator = 100;\n    reels[2].probs = [12, 11, 11, 11, 11, 11, 11, 11, 11];\n    reels[2].eventLabels = [0, 1, 2, 3, 4, 5, 6, 7, 8];\n    reels[3].probDenominator = 100;\n    reels[3].probs = [12, 11, 11, 11, 11, 11, 11, 11, 11];\n    reels[3].eventLabels = [0, 1, 2, 3, 4, 5, 6, 7, 8];\n    reels[4].probDenominator = 100;\n    reels[4].probs = [12, 11, 11, 11, 11, 11, 11, 11, 11];\n    reels[4].eventLabels = [0, 1, 2, 3, 4, 5, 6, 7, 8];\n}\n\n  // CALCULATE THE PAYOUT\n  function paytable(uint[numReel] memory outcome, uint betAmount) internal returns (uint) {\n    uint maxMatch = countMaxMatch(outcome);\n    if (maxMatch == 4) {\n      return betAmount * 27;\n    }\n    if (maxMatch == 5) {\n      return betAmount * 3252;\n    }\n}\n\n// END MACHINE DEFINITION\n// ******************************************\n\n  // STRUCTURES\n  struct Reel {\n    uint probDenominator;\n    uint[] probs;\n    uint[] eventLabels;\n  }\n\n  struct Bet {\n    address user;\n    uint amount;\n    uint block;\n  }\n\n  struct HousePercentage {\n    uint numerator;\n    uint denominator;\n  }\n\n  // PARAMETERS\n  uint constant public maxHouseMembers = 20; // max number of investors/owners\n  uint constant public minPercentageIncrease = 20; // min overage for kicking someone on funding\n  uint constant public blockDelay = 0; // 0 for debugging, 3 for production\n  uint constant public maxBetAsBalancePercentage = 10;  // percentage of house max bet\n  uint public minFundDivisor = 1000000000;\n  uint public minBetDivisor = minFundDivisor;\n\n\n  // VARIABLES\n  address payable public owner;\n  mapping(uint => Bet) public bets;\n  mapping(uint => bool) public alreadyPlayed;\n  mapping(address => HousePercentage) public housePercentages;\n  mapping(address => uint) public houseAccounts;\n  address payable [maxHouseMembers] public houseMemberArray;\n  uint public counter = 0;\n  uint public nonceForRandom = 0;\n  Reel[numReel] public reels;\n  uint[numReel] thisOutcome;\n  mapping(uint => uint[numReel]) public outcomes;\n  mapping(uint => uint8) public symbolCounter;\n  uint public award;\n\n  // DEFINE EVENTS\n  event BetPlaced(address user, uint amount, uint block, uint counter);\n  event Awarded(uint id, uint award);\n  event Spin(uint id, uint award);\n\n  constructor () public payable {\n    owner = msg.sender;\n    makeMachine();\n  }\n\n  // DETERMINE THE OUTCOME SYMBOL FOR EACH REEL\n  function sample(uint id) public {\n    uint thisRandom;\n    uint thisHash;\n    uint runningProbSum;\n    uint i;\n\n    for (i = 0; i < numReel; i++) {\n      thisHash = uint(keccak256(abi.encodePacked(block.number, msg.sender, i)));\n      thisRandom = thisHash % reels[i].probDenominator;\n      // CONVERT RANDOM NUMBER TO EVENT\n      runningProbSum = reels[i].probs[0] - 1;\n      for (uint j = 0; j < reels[i].probs.length; j++){\n        if (thisRandom <= runningProbSum) {\n          thisOutcome[i] = reels[i].eventLabels[j];\n          break;\n        }\n        else {\n          runningProbSum += reels[i].probs[j + 1];\n        }\n      }\n    }\n    outcomes[id] = thisOutcome;\n  }\n\n  // DISTRIBUTE BETS AND AWARDS ACCORDING TO PERCENTAGE OWNERSHIP\n  function distributeAmount(bool bet) internal {\n    uint numer;\n    uint denom;\n\n    for (uint i = 0; i < maxHouseMembers; i++) {\n      numer = housePercentages[houseMemberArray[i]].numerator;\n      denom = housePercentages[houseMemberArray[i]].denominator;\n\n      // INCOMING BET\n      if (bet) {\n        houseAccounts[houseMemberArray[i]] += (msg.value * numer)/denom;\n      }\n      // OUTGOING PAYOUT\n      else {\n        houseAccounts[houseMemberArray[i]] -= (msg.value * numer)/denom;\n      }\n    }\n  }\n\n  // PLACE A WAGER\n  function wager () payable public {\n    require(msg.value % minBetDivisor == 0);\n    require(msg.value <= (address(this).balance * maxBetAsBalancePercentage) / 100);\n    bets[counter] = Bet(msg.sender, msg.value, block.number + blockDelay);\n    distributeAmount(true);\n    emit BetPlaced(msg.sender, msg.value, block.number + 3, counter);\n    counter++;\n  }\n\n  // PLAY THE GAME\n  function play (uint id) public {\n      Bet storage bet = bets[id];\n      require(msg.sender == bet.user);\n      require(block.number >= bet.block);\n      require(block.number <= bet.block + 255); // make this into a refund\n      require(!alreadyPlayed[id]);\n\n      sample(id);\n\n      alreadyPlayed[id] = true;\n      award = paytable(thisOutcome, bet.amount);\n      if (award > 0) {\n        if (award > address(this).balance) {\n          award = address(this).balance;\n        }\n        distributeAmount(false);\n        msg.sender.transfer(award);\n      }\n\n      emit Awarded(id, award);\n  }\n\n  // TRY TO ADD A NEW MEMBER (OWNER/INVESTOR)\n  function addMember(address payable addressToAdd, uint initialFund) private {\n\n    uint currentMin = houseAccounts[houseMemberArray[0]];\n    uint currentMinIndex = 0;\n    address payable thisAddress;\n\n    // CHECK IF ALREADY A MEMBER\n    for (uint i = 0; i < maxHouseMembers; i++){\n      thisAddress = houseMemberArray[i];\n      if (thisAddress == addressToAdd) {\n          houseAccounts[addressToAdd] += initialFund;\n          calculateHousePercentages();\n          return;\n      }\n    }\n\n    // CHECK IF ANY EMPTY SLOTS\n    for (uint i = 0; i < maxHouseMembers; i++){\n      thisAddress = houseMemberArray[i];\n      if (houseAccounts[thisAddress] == 0) {\n          houseMemberArray[i] = addressToAdd;\n          houseAccounts[addressToAdd] = initialFund;\n          calculateHousePercentages();\n          return;\n      }\n      else {\n        if (houseAccounts[houseMemberArray[i]] < currentMin) {\n          currentMin = houseAccounts[houseMemberArray[i]];\n          currentMinIndex = i;\n        }\n      }\n    }\n\n    // BUMP MIN MEMBER IF INITIAL FUND IS GREATER\n    if ( initialFund > currentMin + ((currentMin * minPercentageIncrease)/100) ) {\n      thisAddress = houseMemberArray[currentMinIndex];\n      houseRemoveMember(thisAddress);\n      houseMemberArray[currentMinIndex] = addressToAdd;\n      houseAccounts[thisAddress] = initialFund;\n      calculateHousePercentages();\n      return;\n    }\n    else {\n      require(0 == 1);\n    }\n  }\n\n  // EUCLID'S ALGORITHM FOR GREATEST COMMON DIVISOR\n  function gcdCalculate(uint a, uint b) public pure returns (uint) {\n    uint t;\n    while (b != 0) {\n      t = b;\n      b = a % b;\n      a = t;\n    }\n    return a;\n  }\n\n  function countMaxMatch(uint[numReel] memory outcomeResult) public returns (uint) {\n    uint8 max = 0;\n    uint8 i = 0;\n\n    for (i = 0; i < numReel; i++) {\n        symbolCounter[outcomeResult[i]] = 0;\n    }\n\n    for (i = 0; i < numReel; i++) {\n      symbolCounter[outcomeResult[i]] += 1;\n      if (symbolCounter[outcomeResult[i]] > max) {\n        max = symbolCounter[outcomeResult[i]];\n      }\n    }\n    return max;\n  }\n\n  // RECALULATE ALL OWNERSHIP PERCENTAGES\n  function calculateHousePercentages() public {\n    uint gcd;\n\n    for (uint i = 0; i < maxHouseMembers; i++) {\n      if (houseAccounts[houseMemberArray[i]] == 0) {\n        housePercentages[houseMemberArray[i]].numerator = 0;\n      }\n      gcd = gcdCalculate(houseAccounts[houseMemberArray[i]], address(this).balance);\n\n      housePercentages[houseMemberArray[i]].numerator = houseAccounts[houseMemberArray[i]]/gcd;\n      housePercentages[houseMemberArray[i]].denominator = address(this).balance/gcd;\n    }\n  }\n\n  //  ALLOW OWNER TO SET AMOUNT WHICH MUST EVENLY DIVIDE ALL FUNDS\n  function setMinFundDivisor(uint amount) public {\n    require(msg.sender == owner);\n    minFundDivisor = amount;\n  }\n\n  // CHECK THAT INITIAL FUND IS MULTIPLE OF minFundDivisor\n  function multipleOf(uint amount) public view returns (bool) {\n    return amount % minFundDivisor == 0;\n  }\n\n  // FUND THE CASINO\n  function fund () public payable {\n    require(multipleOf(msg.value));\n    addMember(msg.sender, msg.value);\n    calculateHousePercentages();\n  }\n\n  // REMOVE A MEMBER (OWNER/INVESTOR)\n  function houseRemoveMember(address payable houseMember) private {\n    if (houseAccounts[houseMember] > 0) {\n      houseMember.transfer(houseAccounts[houseMember]);\n      houseAccounts[houseMember] = 0;\n    }\n  }\n\n  // WITHDRAW AND REMOVE MEMBER\n  function houseWithdraw (address payable houseMember) public {\n    require(msg.sender == houseMember || msg.sender == owner);\n    houseRemoveMember(houseMember);\n    calculateHousePercentages();\n  }\n\n  // TRANSFER ALL FUNDS TO MEMBERS AND DESTROY THE CONTRACT\n  function kill () public {\n    require(msg.sender == owner);\n    for (uint i = 0; i < maxHouseMembers; i++) {\n      houseRemoveMember(houseMemberArray[i]);\n    }\n    selfdestruct(owner);\n  }\n\n  // GETTERS FOR DEBUGGING\n  function outcomeGet(uint id) public view returns (uint[numReel] memory) {\n    return outcomes[id];\n  }\n\n  function getBalance () view public returns (uint) {\n    return address(this).balance;\n  }\n}\n",
  "sourcePath": "/Users/mettinger/github/casino/contracts/slotMachine.sol",
  "compiler": {
    "name": "solc",
    "version": "0.5.0+commit.1d4f565a.Emscripten.clang"
  },
  "schemaVersion": "3.0.1",
  "updatedAt": "2019-02-18T19:06:52.952Z",
  "devdoc": {
    "methods": {}
  },
  "userdoc": {
    "methods": {}
  }
}